:020000040800F2
:10000000101E00209D0100084B1400081B12000860
:100010004914000859020008751B00080000000080
:1000200000000000000000000000000005010008C2
:100030005B020008000000004901000815180008D4
:10004000B7010008B7010008B7010008B7010008B0
:10005000B7010008B7010008B7010008B7010008A0
:10006000B7010008B7010008B7010008B701000890
:10007000B7010008B7010008B7010008B701000880
:10008000B7010008B7010008B7010008B701000870
:10009000B7010008B7010008B7010008B701000860
:1000A000B7010008B7010008B7010008B701000850
:1000B000B7010008A1180008B7010008B70100083F
:1000C000B7010008B7010008B7010008B701000830
:1000D000B7010008691B0008B7010008B701000854
:1000E000B7010008B7010008B7010008DFF810D019
:1000F00000F0A0F800480047451D0008AFF300805D
:10010000101E0020224B19680868B0E8F00F80F339
:100110000988BFF36F8F4FF0000080F311884EF015
:100120000D0E70470000000006480068006880F36C
:10013000088862B661B6BFF34F8FBFF36F8F00DFE1
:1001400000BF00BF08ED00E0EFF30980BFF36F8F41
:100150000F4B1A6820E9F00F106008B54FF05000FF
:1001600080F31188BFF34F8FBFF36F8F02F0D2FD82
:100170004FF0000080F31188BDE808401968086856
:10018000B0E8F00F80F30988BFF36F8F704700BFAE
:1001900028000020EFF305807047000006488047E4
:1001A00006480047FEE7FEE7FEE7FEE7FEE7FEE75C
:1001B000FEE7FEE7FEE7FEE79F180008ED000008F7
:1001C00040EA01039B0703D009E008C9121F08C0D9
:1001D000042AFAD203E011F8013B00F8013B521E59
:1001E000F9D27047D2B201E000F8012B491EFBD2D0
:1001F00070470022F6E710B513460A460446194632
:10020000FFF7F0FF204610BD30B50B460146002039
:100210002022012409E021FA02F59D4205D303FAC8
:1002200002F5491B04FA02F52844151EA2F1010249
:10023000F1DC30BD064C074D06E0E06840F00103FC
:1002400094E8070098471034AC42F6D3FFF752FF0A
:100250000C3F00082C3F0008FEE7704772B6FEE72F
:1002600010B590F821100022022905D004218163E5
:1002700080F82020012010BD01680B6823F00E03D8
:100280000B6001680B6823F001030B6090F84030AD
:10029000C46B012101FA03F3636080F8211080F838
:1002A0002020104610BD000010B590F82110002449
:1002B000022903D00421816301243DE001680A681A
:1002C00022F00E020A6001680A6822F001020A6048
:1002D0001A4A0168914201D1012121E0174A1432E2
:1002E000914201D110211BE0144A2832914201D1E0
:1002F000891515E0114A3C32914201D189140FE071
:100300000E4A5032914202D14FF4803108E00B4A3C
:100310006432914202D14FF4801101E04FF08071BC
:10032000064A083A5160012180F82110002180F826
:100330002010416B01B18847204610BD08000240E3
:100340002DE9F84FDFF8B8910024A9F1040B2346FA
:100350000F2709F1040AABF1040EC9E00125A540FD
:100360002A40AA427DD1674ED1F804C0ACEB060802
:10037000B44532D014DCBCF1030F3AD009DCBCF137
:10038000000F2AD0BCF1010F1CD0BCF1020F31D1FB
:100390001DE0BCF1110F17D0BCF1120F2AD119E0EA
:1003A000B8F5881F19D006DCB8F5803F15D0B8F530
:1003B000801F1FD111E0B8F5001F0ED0B8F5041F43
:1003C00018D10AE0CB6815E0CB681B1D12E0CB68A2
:1003D00008330FE0CB680C330CE08B682BB1012B9A
:1003E0004FF0080303D0456104E0042302E00561F7
:1003F00000E00023FF2A01D8064601E000F10406D0
:100400004FEA840501D9A5F12005D6F8008007FA46
:1004100005FC28EA0C0803FA05F548EA0508C6F8C1
:1004200000804D68ED0062D5374DAE6946F001069B
:10043000AE61AD6924F0030605F001050095334D6A
:1004400006EB050CDCF80850A607360F07FA06F88D
:1004500025EA0805DFF8B880404503D14FF00008D1
:1004600017E044E0DFF8AC80404502D14FF00108CE
:100470000FE0DFF8A480404502D14FF0020808E009
:10048000DFF89880404502D14FF0030801E04FF0BB
:10049000040808FA06F848EA0508CCF808804D6810
:1004A000D9F80060ED024D4601D5164300E09643B1
:1004B0002E604D68DAF80060AD02554601D516434E
:1004C00000E096432E604D68DBF80060AD035D46AA
:1004D00001D5164300E096432E604D68DEF80060BB
:1004E000ED03754601D5164300E096432E60641C6B
:1004F0000D682A46E5407FF431AFBDE8F88F000073
:1005000008040140000011100010024000000140EA
:1005100000080140000C014000100140001401409F
:100520008068084000D0012070470AB1016170471F
:100530000904FBE7014880687047000018000020AC
:1005400002488168027811448160704718000020D9
:10055000074810B5016841F010010160032000F068
:10056000A7F80F2000F006F800F050F8002010BDAA
:100570000020024030B505461F4887B0C16941F0F0
:100580000201C161C06906A900F00200009001A843
:1005900000F036F90498B0B100F052F94000174964
:1005A000174AB0FBF1F11748491E0260416040F262
:1005B000E7320021C0E903218160816100F018FB6E
:1005C000040003D015E000F03BF9E8E70D4800F027
:1005D0003DFB04000DD11D2000F03CF8102D07D28A
:1005E000002229461D2000F043F80748056000E07E
:1005F000012407B0204630BD0010024040420F00E9
:1006000000040040EC0000201C0000200F4808B54A
:10061000816941F001018161816901F0010100916D
:10062000C16941F08051C161C069002200F0805071
:1006300000900F21901E00F01BF80548416821F042
:10064000E06141F00071416008BD0000001002400F
:1006500000000140002809DB00F01F020121914049
:100660004009800000F1E020C0F800117047000050
:10067000F0B40E4B1B680C46C3F30223C3F107050D
:10068000042D00D90425191D072901D2002300E0FB
:10069000DB1E012606FA05F1491E214099409E40C5
:1006A000761E16403143F0BC01F076BA0CED00E046
:1006B000064900F0070208684FF6FF03184040EAB9
:1006C0000220034A10430860704700000CED00E070
:1006D0000000FA052DE9F0470F46050061D0434EB2
:1006E000306800F00700B84209D2306820F00700F7
:1006F00038433060306800F00700B84251D12868B4
:100700003B4C810712D5400703D5606840F4E06098
:1007100060602878000703D5606840F4605060602E
:100720006068A96820F0F000084360602878C0077E
:1007300028D06868012810D02168022810D08907C5
:1007400000292EDA616821F0030101436160FFF79F
:10075000F1FE804641F288390DE021688903EFE718
:100760008901EDE7FFF7E6FEA0EB0801494502D954
:100770000320BDE8F0876068696800F00C00B0EB0A
:10078000810FEFD1306800F00700B8420BD9306814
:1007900020F0070038433060306800F00700B842AE
:1007A00001D00120E5E72878400705D56068E968B1
:1007B00020F4E060084360602878000706D5606890
:1007C000296920F4605040EAC100606000F058F8E8
:1007D0006168084AC1F30311515CC84006490860CA
:1007E00006480068FFF7C6FE0020C2E7002002406E
:1007F00000100240E63E0008240000201C000020FB
:100800000F2202600C4A536803F0030343605368ED
:1008100003F0F0038360536803F4E063C36052683D
:100820004FF4E06303EAD20202610448006800F07A
:1008300007000860704700000010024000200240DE
:100840000448054900684968044AC1F30221515C23
:10085000C84070472400002000100240F63E000807
:100860000448054900684968044AC1F3C221515C43
:10087000C84070472400002000100240F63E0008E7
:100880000E4A51680E4801F00C03042B11D0082BBE
:100890000FD10C48C1F38343C903C05C0AD551682A
:1008A000084AC1F34041921E515C054A5043B0FBD7
:1008B000F1F07047044948437047000000100240BF
:1008C00000127A00D63E000800093D002DE9F84FDD
:1008D000040070D02078C04DC00749D06868C0F3CC
:1008E0008100012807D06868C0F38100022809D17F
:1008F0006868C00306D52868800339D56068002879
:10090000E7D035E06068B0F5803F0BD010B1B0F5AE
:10091000A02F11D0286820F480302860286820F4A7
:10092000802002E0286840F480302860606890B140
:10093000FFF700FE06460AE0286840F480202860A1
:10094000F0E700BFFFF7F6FD801B642873D8286826
:100950008003F7D50CE0FFF7EDFD064605E000BF8C
:10096000FFF7E8FD801B6428F0D828688003F7D4DF
:1009700020789A4E80074FF001094FF0000839D5D2
:10098000686810F00C0F07D06868C0F38100022877
:1009900009D16868C00306D42868800714D5206987
:1009A000012808D110E02069B0B1C6F80090FFF727
:1009B000C1FD074605E00AE1FFF7BCFDC01B0228A8
:1009C000C4D828688007F7D52868616920F0F80046
:1009D00040EAC10028600DE0C6F80080FFF7AAFDDC
:1009E000074604E0FFF7A6FDC01B022823D82868AD
:1009F0008007F7D4207800072CD57948A169D9B1B0
:100A0000C0F80090FFF796FD074604E0FFF792FD5F
:100A1000C01B02280FD8686A8007F7D571484FF4C9
:100A2000FA510068B0FBF1F0009000BF0098411E41
:100A30000091FAD20EE080E0C0F80080FFF77AFD66
:100A4000074604E0FFF776FDC01B022875D8686AE8
:100A50008007F7D42078400760D5E8690027C000F8
:100A600008D4E86940F08050E861E869012700F0A7
:100A7000805000905C480168C90513D40168834622
:100A800041F480710160FFF755FD824606E000BF2A
:100A9000FFF750FDA0EB0A0064284ED8DBF80000F9
:100AA000C005F5D5E06801280AD008B1052813D0A3
:100AB000286A20F001002862286A20F0040002E081
:100AC000286A40F001002862E06841F2883B98B152
:100AD000FFF730FD82460BE0286A40F004002862F0
:100AE000EEE700BFFFF726FDA0EB0A0159455AD8F3
:100AF000286A8007F6D50CE0FFF71CFD824605E06A
:100B0000FFF718FDA0EB0A0159454CD8286A800769
:100B1000F6D41FB1E86920F08050E861E06988B33D
:100B20006968C1F38101022944D00228C6F86080B7
:100B300004D0FFF7FFFC044638E034E0FFF7FAFC8E
:100B4000074604E0FFF7F6FCC01B02282BD82868F4
:100B50008001F7D4206AB0F5803F05D16868A168AC
:100B600020F4003008436860D4E90801084369684C
:100B700021F4741108436860C6F86090FFF7DAFC4E
:100B8000044606E025E000BFFFF7D4FC001B022866
:100B900009D828688001F7D51BE000BFFFF7CAFC21
:100BA000001B022802D90320BDE8F88F28688001C5
:100BB000F4D40EE00128F7D06868226A00F480318E
:100BC000914204D1616A00F47010884201D0012082
:100BD000EAE70020E8E7000000100240000042427F
:100BE000800442422400002000700040704770479B
:100BF00010B5040003D094F83D0010B107E00120C7
:100C000010BD002084F83C00204600F01EF80220B1
:100C100084F83D00211D206800F048FE012084F882
:100C2000460084F83E0084F83F0084F8400084F8D1
:100C3000410084F8420084F8430084F8440084F8BA
:100C4000450084F83D00002010BD704790F83D102D
:100C5000012901D001207047022180F83D10016870
:100C6000CA6842F00102CA6000680B49884208D095
:100C7000B0F1804F05D00949884202D00849884226
:100C800004D1816801F00701062903D0016841F011
:100C90000101016000207047002C01400004004069
:100CA00000080040704770B50446006801694FF0C5
:100CB0000005C943890715D4C168C943890711D400
:100CC000E91E0161012020772068806980072046A5
:100CD00002D0FFF7E7FF04E000F098F8204600F0AC
:100CE00096F8257720680169C943490717D4C16878
:100CF000C943490713D46FF0040101610220207732
:100D00002068806910F4407F204602D0FFF7CAFFB8
:100D100004E000F07BF8204600F079F825772068A1
:100D20000169C943090716D4C168C943090712D428
:100D30006FF008010161042020772068C0698007F6
:100D4000204602D0FFF7AEFF04E000F05FF8204637
:100D500000F05DF8257720680169C943C90617D4FA
:100D6000C168C943C90613D46FF01001016108209E
:100D700020772068C06910F4407F204602D0FFF73A
:100D800091FF04E000F042F8204600F040F825779B
:100D900020680169C943C90708D1C168C943C907A7
:100DA00004D1891E0161204600F032F820680169F3
:100DB000C943090609D4C168C943090605D46FF0BF
:100DC000800101612046FFF711FF20680169C943D6
:100DD000490609D4C168C943490605D46FF04001EA
:100DE0000161204600F01EF820680169C9438906A8
:100DF0000BD4C168C943890607D46FF02001016193
:100E00002046BDE87040FFF7F2BE70BD70477047E6
:100E100000680349884201D1FFF792BB7047000088
:100E2000000400407047704770470000F8B5016843
:100E300004460868CA684B6910F00F0F4FF00005B0
:100E400059D003F0010602F49077374365D0C1070B
:100E500005D0D10503D5616C41F001016164410702
:100E600005D5D90703D0616C41F0020161648107A7
:100E700005D5D90703D0616C41F004016164010715
:100E800007D502F02001314303D0616C41F0080125
:100E90006164616C00293AD0800604D5900602D5C1
:100EA000204600F068FD20684069616CC0F3801046
:100EB000090700D460B3204600F036FD2068406981
:100EC000400621D52068143050E8001F21F0400171
:100ED00040E80012002AF5D1E06BA8B16D494163EA
:100EE000E06BFFF7E1F9002811D0E06B416B01B036
:100EF000BDE8F040084783060FD593060DD5204680
:100F0000BDE8F84000F037BD2046FFF78DFFF8BD83
:100F10002046FFF789FF6564F8BD266B2023012E6C
:100F20007CD1C6067AD5D60678D508684868009080
:100F300048694FF00206400640D5E16B08684068FA
:100F40000004000CE8D0A28D8242E5D9E0858869D2
:100F500020282DD020680C3050E8001F21F480712B
:100F600040E80012002AF5D12068143050E8001F34
:100F700021F0010140E80012002AF5D12068143068
:100F800050E8001F21F0400140E80012002AF5D18E
:100F900084F84230256320680C3050E8001F21F0AF
:100FA000100140E80012002AF5D1E06BFFF758F974
:100FB0006663A08DE18D401A81B22AE0A08DE18D9B
:100FC000401A81B2E08D0028A6D00029A4D0226862
:100FD0000C3252E8000F20F4907042E80007002F16
:100FE000F5D12068143050E8002F22F0010240E8CB
:100FF0000027002FF5D184F84230256320680C309B
:1010000050E8002F22F0100240E80023002BF5D119
:1010100066632046FFF707FFF8BDFFE705062BD5FF
:10102000150629D594F841002128F5D1A068B0F51E
:10103000805F01D12069B0B1206A411C2162216822
:1010400000784860E08C401E0004000CE084E3D18E
:101050002068C16821F08001C1602068C16841F04A
:101060004001C160D8E7206A0088C0F308004860EA
:10107000206A801C2062E5E74006CDD55006CBD51E
:10108000CA68204622F04002CA6084F8413000F06D
:10109000C3F8C1E71919000870B5040004D094F82A
:1010A0004100002510B106E0012070BD84F84050D9
:1010B000204600F023F8242084F841002068C1680D
:1010C00021F40051C160204600F0B6FC206801699F
:1010D00021F4904101612068416921F02A014161B8
:1010E0002068C16841F40051C1606564202084F823
:1010F000410084F842006563002070BD30B585B0C2
:1011000000240094019402940394006818498842D2
:101110002CD11848816941F480418161816901F4D1
:1011200080410491816941F0040181618069124D1F
:1011300000F0040004904FF4007000900220019031
:101140000320039069462846FFF7FAF82815CDE9F1
:101150000004694628460294FFF7F2F800220521B0
:101160002520FFF785FA2520FFF774FA05B030BD7A
:1011700000380140001002400008014070472DE98E
:10118000F843044690F841001F4616460D462028B5
:1011900002D00220BDE8F8837DB176B10020606402
:1011A000212084F84100FFF7C5F9A6848046E68433
:1011B000A068B0F5805F02D003E00120EAE7206973
:1011C00010B12E4600250EE000260CE080212046BE
:1011D00000F08EFCA0B9AEB116F8010B2168486092
:1011E000E08C401EE084E08C43464FF00002009704
:1011F0000028EBD14FF04001204600F079FC30B1DF
:101200000320C7E735F8020BC0F30800E6E720200B
:1012100084F841000020BDE77047FEE77FB5002459
:101220004FF48040084D0090019402946946039465
:101230002846FFF785F86814CDE90004694628467A
:101240000294FFF77DF87FBD000C014070B5164D8C
:101250004FF48046002431462846FFF761F960B913
:10126000142001F0FBFB31462846FFF759F900280E
:10127000F9D0142001F0F2FB01244FF4005631465E
:101280002846FFF74DF960B9142001F0E7FB31461D
:101290002846FFF745F90028F9D0142001F0DEFBBD
:1012A0000224204670BD0000000C014010B5064825
:1012B0004FF4005309B1002200E001221946FFF764
:1012C00034F9002010BD00000010014070B586B058
:1012D000002411480094019402940394816941F020
:1012E0001001816180690D4E00F010004FF400552F
:1012F0000490224629463046FFF717F90120009551
:10130000CDE901040220039069463046FFF718F842
:1013100006B0002070BD0000001002400010014027
:101320001CB501F029FD0C4C606010B10BA000F061
:1013300023FC114A0021114800F052FD064960616A
:1013400008311820CDE90001002380220CA10F48AC
:1013500002F0A8F81CBD000000000020CAC2BCFEBC
:10136000B1EAD6BED7E9B4B4BDA8B3C9B9A6A3A1A2
:10137000A3A1A3A10D0A0000B03E00089D1700081C
:1013800053544152545F5441534B000049170008D5
:1013900070B586B000241C48009401940294039414
:1013A000816941F010018161816901F010010491AE
:1013B000816941F020018161816901F0200104917E
:1013C000816941F004018161816901F004010491A6
:1013D000816941F00801816180690C4E00F00800CC
:1013E0004FF440750490002229463046FFF79DF8DF
:1013F00011200095CDE90104022003906946304692
:10140000FEF79EFF06B070BD00100240000C0140C8
:101410000C4810B50A4901604FF416514160002193
:1014200081600C22C160C0E904128161C161FFF7D3
:1014300033FE002803D0BDE81040FEF70FBF10BDFB
:1014400000380140A4000020FEE7FEE770B500244C
:101450000021204600F0DDF80025002000F063F9AF
:101460006D1CEDB2802DF8D3641CE4B2082CEFD3D0
:1014700070BD000010B5064C012211022046FFF796
:1014800054F820460122BDE810405102FFF74DB844
:10149000000C01402DE9F047144E002407464FF0A0
:1014A00080084FF40079B51528FA04F23A4049460D
:1014B0003046FFF73AF8012229463046FFF735F863
:1014C000002229463046FFF730F8641CE4B2082CAD
:1014D000EAD3012229463046FFF727F8294630464D
:1014E000BDE8F0470022FFF720B80000000C0140E3
:1014F00070B501220B4D540221462846FFF715F81E
:101500000122160231462846FFF70FF80022214635
:101510002846FFF70AF831462846BDE87040002209
:10152000FFF703B8000C014070B50A4D4FF400748A
:10153000002221462846FEF7F8FF01221102284624
:10154000FEF7F3FF21462846BDE870400122FEF772
:10155000ECBF0000000C014010B500204FF47A727F
:101560000021491C9142FCD3401C9042F8D3FFF764
:1015700081FFAE2000F0C6F8D52000F0C3F880202F
:1015800000F0C0F8A82000F0BDF83F2000F0BAF845
:10159000D32000F0B7F8002000F0B4F8402000F0AD
:1015A000B1F8A12000F0AEF8C82000F0ABF8DA20C6
:1015B00000F0A8F8122000F0A5F8812000F0A2F8B1
:1015C000CF2000F09FF8D92000F09CF8F12000F027
:1015D00099F8DB2000F096F8302000F093F8A42072
:1015E00000F090F8A62000F08DF88D2000F08AF829
:1015F000142000F087F8AF2000F084F8BDE8104018
:10160000FFF724BF0246012000E05043491EFCD2F0
:10161000704710B50C4640F0B00000F073F8102091
:1016200040EA141000F06EF804F00F00BDE810401E
:1016300000F068B82DE9F0410746CE004000083EB2
:10164000801E15464FF0FF38F1B2C0B2FFF7E1FF40
:101650001148002400EB05152819A0F5805090F8DA
:10166000000E00F060F8641CE4B2082CF4D308EB20
:101670004700F1B2C0B2FFF7CCFF00242819A0F553
:10168000805090F8080E00F04EF8641CE4B2082C6C
:10169000F4D3BDE8F0810000C03800082DE9F04720
:1016A00000241D461646884681460A2713E0291B5A
:1016B0000A20491EFFF7A6FFB6FBF0F0B0FBF7F1DA
:1016C00007FB110208EB0400C1B248463032FFF7B5
:1016D000B1FF641CE4B2AC42E9D3BDE8F0872DE968
:1016E000F04115460E460746002406E03019C1B207
:1016F0003846FFF79FFF641CE4B22A5D002AF5D14B
:10170000BDE8F08110B50446FFF7F2FE7820FFF740
:10171000C1FE0020FFF7BEFE2046FFF7BBFEBDE87E
:101720001040FFF701BF10B50446FFF7E1FE782037
:10173000FFF7B0FE4020FFF7ADFE2046FFF7AAFE00
:10174000BDE81040FFF7F0BE1CB50D491820CDE9EB
:101750000001002380220BA10C4801F0A3FE0849E0
:101760001920091DCDE900010023462208A10A48DD
:1017700001F098FEBDE81C40002001F095B9000082
:101780000C0000205461736B3100000055270008E5
:101790005461736B3200000085270008FFF756FE86
:1017A000012100240EA20846FFF799FF0F4D4FF4C8
:1017B0007A7600BF01F07EF8641C21460CA000F090
:1017C000DBF901F097F82A680323501C28600121F7
:1017D0000220FFF763FF304601F040F9EAE700001E
:1017E00068656C6C6F20776F726C6400000000207D
:1017F000537461727444656661756C74D4CBD0D0D7
:10180000B4CECAFD3A2564A3A1A3A1A3A1210D0AC8
:101810000000000010B5502080F31188BFF34F8FF7
:10182000BFF36F8F01F0AAFE18B104494FF080504A
:101830000860002080F3118810BD000004ED00E076
:1018400030B58FB028216846FEF7D3FC14210AA8D2
:10185000FEF7CFFC01210804CDE90010002402941A
:1018600002250491CDE907504FF4E0100990684635
:10187000FFF72CF808B172B6FEE70F20CDE90A0594
:101880004FF48060CDE90C4002210AA80E94FEF7C7
:1018900021FF002801D072B6FEE70FB030BD7047BF
:1018A0000148FFF700BA0000EC000020F0B5026824
:1018B000164B174C174D4FF08047984205D0B84251
:1018C00003D0A04201D0A84203D122F070064A689A
:1018D0003243984205D0B84203D0A04201D0A8427A
:1018E00003D122F44074CA6822434C6922F080027A
:1018F000224302608A68C2620A688262984201D109
:101900000969016301214161F0BD0000002C014023
:10191000000400400008004010B5406A0021C18565
:10192000C184FFF781FA10BD01680C3151E8002F26
:1019300022F4907241E80023002BF5D101681431A4
:1019400051E8002F22F0010241E80023002BF5D1DD
:10195000016B012909D101680C3151E8002F22F0F7
:10196000100241E80023002BF5D1202180F842101D
:1019700000210163704708B590F84210222901D078
:10198000022008BD82684FF480539A4201D1016958
:1019900021B1816A9A421BD04AB10AE00268816A89
:1019A0005268C2F308020A80816A891C08E0026951
:1019B00072B10268526802F07F020A70816A491CA3
:1019C0008162C18D491E0904090CC18503D01BE049
:1019D00002685268F1E70168CA6822F02002CA6012
:1019E0000168CA6822F48072CA6001684A6922F0FC
:1019F00001024A61202180F8421000214163026BFC
:101A0000012A03D0FFF7BAFB002008BD016301687B
:101A10000C3151E8002F22F0100241E80023002B86
:101A2000F5D101680A68D20602D50A6849680091B2
:101A3000818DFFF7F8F9E7E770B5044600680169A2
:101A4000E26821F44051114301612169A068084313
:101A5000616908432168CA6841F20C639A430243F2
:101A6000CA6020684169A26921F440711143416153
:101A70001E492068884202D1FEF7F2FE01E0FEF71F
:101A8000DFFE00EBC00101EB001260686421800002
:101A9000B2FBF0F3B3FBF1F36FF018067343B2FB44
:101AA000F0F5B2FBF0F605EB8305322303EB0515E9
:101AB000B5FBF1F5B6FBF1F605F0F00505EB061503
:101AC000B2FBF0F6B2FBF0F0B0FBF1F06FF01802F1
:101AD000504306EB800003EB0010B0FBF1F02168EF
:101AE00000F00F002844886070BD000000380140FD
:101AF0002DE9F041984617460E460446069D27E01C
:101B0000681C25D02DB1FEF715FDA0EB0800A842FA
:101B10001ED920680C3050E8001F21F4D07140E835
:101B20000012002AF5D12068143050E8001F21F07F
:101B3000010140E80012002AF5D1202084F841007C
:101B400084F84200002084F840000320BDE8F081C2
:101B50002068006836EA000004D00020B842CFD0E8
:101B60000020F3E70120F9E70148FFF75FB9000023
:101B7000A4000020FEE700000FB4054B10B503A938
:101B8000044A029800F028F810BC5DF814FB00002D
:101B90002D1D0008A00000200907090E002804DB05
:101BA00000F1E02080F80014704700F00F0000F111
:101BB000E02080F8141D704702E008C8121F08C119
:101BC000002AFAD170477047002001E001C1121FBE
:101BD000002AFBD1704700002DE9FF4F89B09B46DA
:101BE0000446002506E025280BD05A460B9990475D
:101BF000641C6D1C20780028F5D10DB02846BDE886
:101C0000F08F0027B8460122474900E0074314F847
:101C1000013F203B02FA03F00842F7D120782E283A
:101C200019D114F8010F47F004072A280ED06FF0DD
:101C30002F022078A0F1300109290CD808EB880187
:101C400002EB410100EB0108641CF2E70A98641CF6
:101C500050F8048B0A9020780028CED0642808D051
:101C6000692806D075281ED05A460B9990476D1CDE
:101C700058E00A994FF00A0901C90A91002802DACE
:101C800040422D2102E0390504D52B218DF820108A
:101C9000012103E0F90704D02021F7E78A4608AEC6
:101CA0000DE00021FAE70A994FF00A0901C90A91EB
:101CB000F7E74946FEF7A8FA303106F8011D00287B
:101CC000F7D1ADEB060000F12009780701D44FF001
:101CD0000108C84502DDA8EB090000E000208046AD
:101CE000002706E008A85A46C05D0B9990476D1C76
:101CF0007F1C5745F6DB04E030205A460B9990478D
:101D00006D1CB8F10001A8F10108F5DC05E016F83A
:101D1000010B5A460B9990476D1CB9F10001A9F1CE
:101D20000109F4DC641C65E70928010013B54FF6CE
:101D3000FF73012269460248FFF721FA00981CBD93
:101D4000A4000020FEF704FCFFF77AFDFFF720FB5C
:101D5000FFF75EFBFFF700FC00F006F8FFF7E0FA84
:101D600000F01EF8FEE70000EFF3058058B9EFF32E
:101D7000108040B909490868022801D030B109E053
:101D8000EFF3118030B16FF005007047012008605B
:101D9000002070474FF0FF307047000078000020AF
:101DA00010B5EFF3058060B9EFF3108048B90B4927
:101DB0000868022802D0012806D00BE0EFF311805A
:101DC00040B16FF0050010BD0220086000F056FF22
:101DD000002010BD4FF0FF3010BD00007800002043
:101DE000F0B585B04FEA01034FF00004EFF3058131
:101DF0000394A1BBEFF3108189BB21490968022933
:101E000002D1EFF3118151BB48B3802618218DF820
:101E1000104004AD42B3176807B13D4697691FB142
:101E200039467F1E382F02D21779FF0702D00020D3
:101E300005B0F0BD576907B1BE08D2F808C0BCF1C3
:101E4000000F0DD0D4685C2C18D312693AB137B1A9
:101E50008DE806103246294601F051FB03900DE053
:101E6000D7685FB912694AB903AACDE90012B2B2C4
:101E7000294601F017FB012800D003940398D7E707
:101E8000780000202DE9F041134C0F4605466669A5
:101E90002068001D00F0A6FC681C07D137B121683E
:101EA000BDE8F0410D48091D00F0F8BC206835443C
:101EB000B5424560216805D2A068BDE8F041091D22
:101EC00000F0D4BC6068091D00F0D0FC206B854296
:101ED00000D22563BDE8F081280000202406002000
:101EE0002DE9F041054600F0E5FC2D4C2069401C31
:101EF000206120682B4F10B1E06930B32BE02560E2
:101F00002069012827D1002606EB860007EB800018
:101F100000F09EFC761C382EF6D3234800F098FC87
:101F20002148143000F094FC1F48283000F090FC49
:101F30001D483C3000F08CFC1B48503000F088FC01
:101F4000194860601430A06005E02068E96AC06A42
:101F5000884200D82560E06A401CE0626864E86A54
:101F6000A169884200D9A06100EB800007EB8000E6
:101F7000291D00F093FC00F0BDFCE06900280CD0A6
:101F80002068E96AC06A884207D208494FF0805049
:101F90000860BFF34F8FBFF36F8FBDE8F081000083
:101FA0002800002074010020D405002004ED00E08A
:101FB00038B500F07FFC104CA068C8B90F4800F09D
:101FC00047FC0E48143000F043FC0C4820601430ED
:101FD00060600A4B00202833009003F15402102166
:101FE0000A2000F0F5FFA06010B105A100F000FD8F
:101FF000BDE8384000F07EBC6400002038060020B8
:10200000546D72510000000030B4026C0B46002A7F
:102010000BD0C1681144C1604468A14201D301687A
:10202000C16030BC1846FEF7CBB830BC70472DE914
:10203000F041856B174604460026026C82B1C7B199
:10204000E068FEF7BDF8E168206C091AE1602268DB
:10205000914202D26168081AE060022F16D017E0A0
:102060002068A8B9606801F0EDFA064600206060BB
:102070000EE0A068FEF7A4F8216CA0680844A060F8
:102080006168884204D32068A06001E005B16D1E3C
:102090006D1CA5633046BDE8F08110B5044690F88C
:1020A000590058B101280CD002280FD0502080F3DD
:1020B0001188BFF34F8FBFF36F8FFEE7206B00F0E7
:1020C0002DFC2046BDE8104000F028BC10BD0000EB
:1020D00010484FF44061420706D0C01D0D4920F062
:1020E0000700411AC1F540610B4A00230144C2E9CF
:1020F00000030839103A21F0070111604B600B60B2
:102100000B1AC0E9001393604FF000405360D06099
:10211000704700000C0E00208C000020144E154C5F
:10212000A6F29C474FF08058DFF84C9012E000BFB9
:1021300000F0C0FBF068C568281D00F053FB206963
:10214000401E2061E068401EE06000F0D3FB28469E
:10215000FFF7A3FFE0680028EAD138680128F9D921
:10216000C9F80080BFF34F8FBFF36F8FF2E7000015
:10217000100600202800002004ED00E070B51D4688
:10218000049C61B1C4F80020C4E90F01012120467C
:1021900000F052FF84F850500020A06470BD24600D
:1021A000F2E72DE9F0470E46DDE90984174682463D
:1021B00091009946089DA522206BFEF713F86FF059
:1021C0000301206B01EB8701084420F00707780723
:1021D00007D0502080F31188BFF34F8FBFF36F8F6C
:1021E000FEE72218315C82F83410315C11B1401CDA
:1021F0001028F6D3002684F84360382D00D3372505
:10220000E562C4E91356201D00F02DFB04F118000F
:1022100000F029FB2461C5F138006462A0616665A5
:1022200084F858604A465146384600F081FA2060EA
:10223000B8F1000F01D0C8F80040BDE8F0870000F9
:1022400030B5114900E011460A688242FBD34B6861
:102250005C18844203D140681844486008464368CB
:102260001C18944209D1084C103C2468A24209D0A1
:1022700052681A4442600A6812680260814200D0C3
:10228000086030BD0460F9E78C00002070B50024C0
:1022900041600B4D0061914206D8D11A826991428A
:1022A00006D2011D686807E09A4203D2994201D321
:1022B000012403E0011D286800F0D8FA204670BD13
:1022C0006400002010B5044600F0F4FAA06B28B1B9
:1022D0005FF0000400F00EFB204610BD0124F9E77A
:1022E00073B500260098846C5CB1A26BE06B8242EF
:1022F0000FD3502080F31188BFF34F8FBFF36F8F40
:10230000FEE7502080F31188BFF34F8FBFF36F8F2C
:10231000FEE7A26B82420CD294F945500A46694608
:102320002046FFF784FE0646681C04D06D1C84F826
:10233000455030467CBD606A0028FAD004F1240084
:1023400001F0C0F90028F4D00126F2E730B589B0D9
:10235000304D55E00498002806DADDE90601059ABB
:102360009047049800284BDB069C606910B1201D43
:1023700000F038FA02A800F0B9F8024604980A28DA
:102380003ED2DFE800F00505053D263705053D2670
:102390000598A169034601442046FFF777FF00B383
:1023A000616A20468847E069012829D10020009011
:1023B0000598A169002342181946204601F04CFAFD
:1023C00078B9502080F31188BFF34F8FBFF36F8F20
:1023D000FEE70598A06128B1811813462046FFF753
:1023E00055FF0DE0502080F31188BFF34F8FBFF3EE
:1023F0006F8FFEE794F82C0010B9204600F08EFA9B
:10240000002204A9A86800F077FF0028A2D109B033
:1024100030BD0000640000202DE9FC410F46054658
:1024200000F070FC01A800F061F80446019818B1B2
:1024300001F080F9BDE8FC81224EAFB17068006800
:10244000A8B30027291B3A46B06800F0E5FA01F06E
:1024500071F90028EED11C494FF080500860BFF39D
:102460004F8FBFF36F8FE5E7A542EBD801F062F91C
:1024700030682746C068C468201D00F0B3F9E069E1
:10248000012810D1A0692B4641193A462046FFF792
:10249000FDFE40B100200346014600902A4620463A
:1024A00001F0DAF920B1616A20468847C2E707E007
:1024B000502080F31188BFF34F8FBFF36F8FFEE77B
:1024C0000127BFE76400002004ED00E006484168F2
:1024D000096829B14168C968C968496801637047DA
:1024E0004FF0FF31FAE700002800002070B50546E4
:1024F00001F03EF8064E04463069844203D200F0F3
:1025000009F8012000E0002028602046346170BDF9
:1025100064000020F8B5194D1FE0C068C468066863
:10252000201D00F05FF9616A20468847E0690128B4
:1025300013D1A0693044B04206D924616060211DE6
:10254000286800F093F908E0002003460146009057
:102550003246204601F080F938B128680168002928
:10256000DBD16968C5E90010F8BD502080F31188FF
:10257000BFF34F8FBFF36F8FFEE7000064000020B2
:1025800008484068401C4FF0500080F3118804D088
:10259000BFF34F8FBFF36F8FFEE7BFF34F8FBFF3D4
:1025A0006F8FFEE7940000200346002012B199438C
:1025B00002D070470B42FCD001207047074C2068C6
:1025C000016841B1C0680021D0F80000FFF724FF86
:1025D000FFF7BCFEF3E701210020F7E764000020CD
:1025E0002DE9F041044600F065F994F9455004F1F5
:1025F000240610E0A06C20B100212046FFF770FEF9
:1026000004E0606A48B1304601F05CF808B100F0BF
:102610009BFA6D1E6DB2002DECDC4FF0FF3684F896
:10262000456000F067F900F045F994F9445004F171
:10263000100709E0206948B1384601F043F808B1B5
:1026400000F082FA6D1E6DB2002DF3DC84F8446058
:10265000BDE8F04100F04EB92DE9F04105460027F4
:1026600000F050FB314E306808B9FFF731FDF068DB
:1026700005424BD1C5B3083568070ED005F00700F9
:10268000C0F108000544680707D0502080F3118886
:10269000BFF34F8FBFF36F8FFEE72DB37068854296
:1026A00034D82248103001460C6801E020460C4620
:1026B0006168A94202D221680029F7D131688C42B1
:1026C00024D007682168016060680837411B102921
:1026D0000FD96019420708D0502080F31188BFF34A
:1026E0004F8FBFF36F8FFEE710E041606560FFF72B
:1026F000A7FD61687068401A7060B268904200D2AD
:10270000B060F06801430020C4E9000101F012F854
:10271000780707D0502080F31188BFF34F8FBFF3A5
:102720006F8FFEE73846BDE8F08100007C00002096
:1027300010B5031F4FF080741C601B1F21F00101B6
:102740001960191F024B0B60143940380A6010BD24
:1027500081250008FEF762FD094C00BFFEF776FDFB
:10276000C0B2012802D0022802D005E0012100E019
:102770000221606800F00EFB0A2000F06FF9EDE71F
:102780000000002008B5FEF7A1FD104E4FF0FF3508
:102790004FF4FA74012300951A460321706800F083
:1027A0003FFB0328F6D10AA0FFF7E6F9012108460E
:1027B000FEF77CFD204600F051F900210120FEF7D4
:1027C00075FD204600F04AF9E4E700000000002013
:1027D000CAC2BCFEB4A5B7A2A3A1A3A1A3A10D0A1E
:1027E00000000000D0E9013201699A60D0E90123BC
:1027F0005A604A68824201D182684A6000220261BE
:102800000868401E086008687047000004490868AE
:102810000A688069D26A0968C2F138028A61704721
:1028200028000020034B036003F15C000860802057
:102830001060704754070020044B036003F15C00F4
:1028400008604FF48070106070470000B0090020ED
:1028500000F108014FF0FF32C0E90112C1600161CF
:1028600000210160704700210161704730B50B689D
:102870005A1C02D000F1080202E0026904E022467C
:10288000546825689D42FAD953684B6099608A6004
:10289000516008610168491C016030BD42684A60AE
:1028A00093688B6093685960916008610168491C66
:1028B00001607047502080F31188BFF34F8FBFF342
:1028C0006F8F0A494868401C486001280CD10848AD
:1028D000006810F0FF0F07D0502080F31188BFF37D
:1028E0004F8FBFF36F8FFEE770470000940000200A
:1028F00004ED00E00849486828B1401E486001D155
:1029000080F311887047502080F31188BFF34F8FF8
:10291000BFF36F8FFEE700009400002070B5002821
:1029200027D0144DA0F108046168E868014207D17E
:10293000502080F31188BFF34F8FBFF36F8FFEE7F6
:1029400022683AB1502080F31188BFF34F8FBFF354
:102950006F8FFEE78143616000F0D4F960686968B9
:10296000084468602046FFF76BFCBDE8704000F04B
:10297000E1BE70BD7C0000204FF0E020002101612D
:10298000816105494FF47A720968B1FBF2F1491E81
:1029900041610721016170472400002010B5FDF757
:1029A000F9FB114910280ED300F1E02090F8F00354
:1029B0000A78904207D2502080F31188BFF34F8FDE
:1029C000BFF36F8FFEE709480068896800F4E06094
:1029D000884207D9502080F31188BFF34F8FBFF38F
:1029E0006F8FFEE710BD0000940000200CED00E0AA
:1029F00010B5084B002200BF53F832401CB1521CE6
:102A0000082AF9D310BD43F8321003EBC201486025
:102A100010BD00003401002070B515460E46044676
:102A2000FFF748FF94F944100020491C01D184F8B5
:102A3000440094F94510491C01D184F84500FFF782
:102A400059FFA06B28B92A46314604F1240000F052
:102A500099F82046BDE87040FFF7C2BD10B50200EE
:102A600014D00F48806B38B1502080F31188BFF329
:102A70004F8FBFF36F8FFEE700F044F9002110463F
:102A8000FFF700FA00F056FE002807D105494FF085
:102A900080500860BFF34F8FBFF36F8F10BD0000F1
:102AA0002800002004ED00E070B50546FFF702FFA6
:102AB0001E4C05B92568281DFFF794FEA86A18B1B9
:102AC00005F11800FFF78EFEE06A401CE062206806
:102AD000854207D1291D1648FFF7E0FEE068401C3B
:102AE000E06007E02069401E20612846FFF7D5FA24
:102AF000FFF7ECFCFFF7FEFEE069002814D0206829
:102B0000854211D1A06B38B1502080F31188BFF3FA
:102B10004F8FBFF36F8FFEE706494FF0805008607C
:102B2000BFF34F8FBFF36F8F70BD000028000020F0
:102B30001006002004ED00E002498A6A026049693B
:102B40004160704728000020014901204862704719
:102B50002800002010B50C4650B109490968183109
:102B6000FFF784FE2046BDE810400121FFF78AB937
:102B7000502080F31188BFF34F8FBFF36F8FFEE7B4
:102B80002800002070B514460D4668B10A4909684E
:102B90001831FFF783FE0CB14FF0FF352146284670
:102BA000BDE87040FFF76EB9502080F31188BFF385
:102BB0004F8FBFF36F8FFEE72800002010B514463B
:102BC000030011D01048826BB2B1026841F000419D
:102BD0009161016818461831FFF760FE2046BDE894
:102BE00010400121FFF74EB9502080F31188BFF348
:102BF0004F8FBFF36F8FFEE7502080F31188BFF334
:102C00004F8FBFF36F8FFEE72800002070B5194D7E
:102C1000AA6BF2B141F000410160C4680CB3FFF748
:102C2000E1FD201DFFF7DEFDE06AA969884200D9B9
:102C3000A861114900EB800001EB8000211DFFF726
:102C40002DFEE06A2968C96A884201D901206862BC
:102C500070BD502080F31188BFF34F8FBFF36F8F8B
:102C6000FEE7502080F31188BFF34F8FBFF36F8FC3
:102C7000FEE70000280000207401002030B587B076
:102C80000024039405AA04A903A80494FFF7CAFD2D
:102C9000DDE903010094CDE90110002315A11748D7
:102CA000059A00F02CFC164D002868631FD000F038
:102CB000A3FD012809D0401C19D1502080F31188B0
:102CC000BFF34F8FBFF36F8FFEE7502080F3118863
:102CD000BFF34F8FBFF36F8F4FF0FF30286301209A
:102CE000E8616C6107B0BDE8304000F01DB907B085
:102CF00030BD000049444C45000000001D21000883
:102D0000280000200248816B491C81637047000045
:102D100028000020164810B5816B11B101214162D5
:102D200010BD002141628169124A01E0B9B1491E1A
:102D300001EB810352F82330002BF7D001EB810324
:102D400002EB830202F1080453685B685360A342FC
:102D500001D15B685360DA680260816110BD502068
:102D600080F31188BFF34F8FBFF36F8FFEE7000032
:102D7000280000207401002070B52020FFF76CFCB3
:102D8000040005D00025201D2560FFF761FD257793
:102D9000204670BD2DE9F0410027884604000AD086
:102DA0005FEA18600FD0502080F31188BFF34F8F77
:102DB000BFF36F8FFEE7502080F31188BFF34F8F72
:102DC000BFF36F8FFEE7261D04F10C05FFF79AFF96
:102DD0002168F06841EA0801216017E0D0E9001697
:102DE00001F07F425301236821F07F4102D40B425E
:102DF00003D10AE031EA030307D1D20100D50F4322
:102E0000216841F00071FFF701FF3046A842E5D18B
:102E10002068B843206000F08DFC2068BDE8F08198
:102E20002DE9F0479A46DDF8209090460D460400C3
:102E30004FF0000709D0280E0FD0502080F31188E2
:102E4000BFF34F8FBFF36F8FFEE7502080F31188E1
:102E5000BFF34F8FBFF36F8FFEE71DB100F07AFB1A
:102E600040B112E0502080F31188BFF34F8FBFF3C1
:102E70006F8FFEE7B9F1000F07D0502080F3118863
:102E8000BFF34F8FBFF36F8FFEE7FFF73BFF26685F
:102E9000524629463046FFF787FB30B1B8F1000FA4
:102EA0001AD02068A843206016E0B9F1000F13D0B3
:102EB000B8F1000F01D04FF08077BAF1000F01D0C8
:102EC00047F0806745EA07014A46201DFFF776FE76
:102ED00000F030FC18B10AE000F02CFC1FE01149B2
:102EE0004FF080500860BFF34F8FBFF36F8FFFF735
:102EF0008DFC0646800110D4FFF7DCFC26685246A4
:102F000029463046FFF750FB28B1B8F1000F02D038
:102F10002068A8432060FFF7EDFC26F07F4630468E
:102F2000BDE8F08704ED00E01CB526490878019063
:102F3000FF20087008788DF800009DF800009DF8CB
:102F4000002000F0F000904207D0502080F311885C
:102F5000BFF34F8FBFF36F8FFEE79DF800001A4B52
:102F600000F0500018700720986005E09DF80020E0
:102F700052008DF80020401E9DF800201206F5D466
:102F80009860032807D0502080F31188BFF34F8F3B
:102F9000BFF36F8FFEE74FF44070986001980870A0
:102FA0000A48016841F470010160016841F0704114
:102FB0000160FFF7E1FC00205860FDF7B5F8002044
:102FC0001CBD000000E400E09400002020ED00E0C3
:102FD00038B5049D18B153B1CAB181B120E0502079
:102FE00080F31188BFF34F8FBFF36F8FFEE7502040
:102FF00080F31188BFF34F8FBFF36F8FFEE7502030
:1030000080F31188BFF34F8FBFF36F8FFEE739B1A5
:10301000502080F31188BFF34F8FBFF36F8FFEE70F
:1030200054241C46012384F846302B460094FFF7B5
:10303000A5F8204638BD000070B50D46040025D027
:10304000FFF738FCD4E90F20216802FB0011616012
:103050000021A1632168A1600A46D4E90F01401E46
:1030600000FB0121E16021464FF0FF3001F8440FE1
:10307000487004F110008DB1FFF7EAFB04F1240061
:10308000FFF7E6FBFFF736FC012070BD502080F310
:103090001188BFF34F8FBFF36F8FFEE721690029BF
:1030A000F0D000F00FFB0028ECD004494FF0805026
:1030B0000860BFF34F8FBFF36F8FE3E704ED00E0CD
:1030C0002DE9FF4782B01D468A464FF000080400F4
:1030D00003D0BAF1000F08D011E0502080F311881E
:1030E000BFF34F8FBFF36F8FFEE7206C38B15020D6
:1030F00080F31188BFF34F8FBFF36F8FFEE7022D70
:103100000AD1E06B012807D0502080F31188BFF36B
:103110004F8FBFF36F8FFEE700F01CFA424F4FF066
:1031200000094FF0805648B9049838B1502080F318
:103130001188BFF34F8FBFF36F8FFEE7FFF7BAFB26
:10314000A06BE16B884207D3022D05D0049808B329
:10315000B8F1000F21D025E02A4651462046FEF75F
:1031600066FFA16C21B129462046FFF7B9F805E0BA
:10317000616A19B104F1240000F0A4FA20B13E60A4
:10318000BFF34F8FBFF36F8FFFF7B4FB012006B083
:10319000BDE8F087FFF7AEFB22E06846FFF7CCFC06
:1031A0004FF00108FFF7A6FBFFF7ACFDFFF782FB2E
:1031B00094F94400401C01D184F8449094F94500EE
:1031C000401C01D184F84590FFF794FB04A96846A0
:1031D00000F02EF930B12046FFF702FA00F0AAFA0B
:1031E0000020D4E7FFF766FBA06BE16B884213D1A8
:1031F000FFF780FB04F110000499FFF7ABFC2046B9
:10320000FFF7EEF900F096FA002897D13E60BFF381
:103210004F8FBFF36F8F91E7FFF76CFB2046FFF7EF
:10322000DFF900F087FA89E704ED00E02DE9F047C7
:10323000984617468946040003D0B9F1000F08D01C
:1032400011E0502080F31188BFF34F8FBFF36F8FD1
:10325000FEE7206C38B1502080F31188BFF34F8F08
:10326000BFF36F8FFEE7B8F1020F0AD1E06B0128C0
:1032700007D0502080F31188BFF34F8FBFF36F8FBB
:10328000FEE7FFF78BFB5020EFF3118680F31188E8
:10329000BFF34F8FBFF36F8FA06BE16B884207D3F3
:1032A000B8F1020F04D0002086F31188BDE8F08742
:1032B00094F94550424649462046FEF7B8FE681C40
:1032C00004D06D1C84F845500120EDE7A06C012569
:1032D00020B141462046FFF703F806E0606A002867
:1032E000F2D004F1240000F0EDF90028ECD0002F1A
:1032F000EAD03D60E8E700002DE9F747002683B0FB
:103300008A46040003D0BAF1000F08D011E0502023
:1033100080F31188BFF34F8FBFF36F8FFEE7206CF0
:1033200038B1502080F31188BFF34F8FBFF36F8FF8
:10333000FEE700F00FF9DFF8F4804FF000094FF0DE
:10334000805748B9059838B1502080F31188BFF3F1
:103350004F8FBFF36F8FFEE7FFF7ACFAA56BC5B1D8
:1033600051462046FEF750FE6D1EA563206950B100
:1033700004F1100000F0A6F928B1C8F80070BFF3FE
:103380004F8FBFF36F8FFFF7B5FA012006B0BDE88E
:10339000F087059808B11EB106E0FFF7ABFA27E009
:1033A0006846FFF7C9FB0126FFF7A4FAFFF7AAFC5E
:1033B000FFF780FA94F94400401C01D184F844904E
:1033C00094F94500401C01D184F84590FFF792FA2A
:1033D00005A9684600F02CF8002820460AD0FFF71F
:1033E000FFF800F0A7F92046FEF76CFF0028B3D0E5
:1033F0000020CBE7FEF766FF90B104F124000599A9
:10340000FFF7A8FB2046FFF7EBF800F093F9002840
:10341000A2D1C8F80070BFF34F8FBFF36F8F9BE747
:103420002046FFF7DDF800F085F995E704ED00E0B0
:103430002DE9F0410C46050011D0C4B1FFF73AFA6E
:10344000174B5A696E682068911B471C17D02F686C
:103450009B6A9F4219D0964217D8012410E0502051
:1034600080F31188BFF34F8FBFF36F8FFEE75020BB
:1034700080F31188BFF34F8FBFF36F8FFEE70024F7
:10348000FFF738FA2046BDE8F081884205D9401A96
:1034900020602846FFF750FBF1E700202060DCE7C2
:1034A000280000202DE9FF5F8346DDE90E8799465D
:1034B00016468A469000FFF7CFF805001CD05C2026
:1034C000FFF7CAF8040014D00020256384F85900DF
:1034D000CDE90240CDE900874B4632465146584679
:1034E000FEF75FFE2046FEF7FBFC012004B0BDE8BE
:1034F000F09F2846FFF712FA4FF0FF30F6E7F0B5DD
:1035000085B0DDE90B640A9DA6B1DCB15C270097AC
:103510002663022684F85960002604AFCDE90246EE
:10352000CDE90057FEF73DFE2046FEF7D9FC049892
:1035300005B0F0BD502080F31188BFF34F8FBFF36B
:103540006F8FFEE7502080F31188BFF34F8FBFF3DA
:103550006F8FFEE70548C16919B1806B18B1002073
:1035600070470120704702207047000028000020AB
:103570000148406970470000280000202DE9F04113
:103580002E4C0027A06B40B1206A401C2062606A6C
:1035900000B101273846BDE8F0816669761C666196
:1035A00013D16068006838B1502080F31188BFF3F0
:1035B0004F8FBFF36F8FFEE76068A1686160A06006
:1035C000A06A401CA062FEF781FF206BDFF87080CC
:1035D000864209D36068006880B16068C068C568C9
:1035E000686886420DD220632068C06A00EB8001C3
:1035F00058F821000128CAD90127C8E74FF0FF3049
:10360000F1E7281DFFF7EEF8A86A18B105F11800D8
:10361000FFF7E8F8E86AA169884200D9A06100EBE9
:10362000800108EB8100291DFFF738F9E86A21685D
:10363000C96A8842CED30127CCE7000028000020C9
:103640007401002070B504004FF0000133D01B4D11
:103650002868844207D0502080F31188BFF34F8F31
:10366000BFF36F8FFEE7206D38B1401E2065E36C1D
:10367000E26A9A421FD040B11DE0502080F31188C9
:10368000BFF34F8FBFF36F8FFEE7201DFFF7AAF840
:10369000E06CE062C0F13800A061E06AA96988428C
:1036A00000D9A861064900EB800001EB8000211DD4
:1036B000FFF7F4F80121084670BD00002800002043
:1036C0007401002070B5C068C46854B104F11800DA
:1036D0000646FFF787F8144DA86B50B131461348E2
:1036E00015E0502080F31188BFF34F8FBFF36F8F29
:1036F000FEE7201DFFF776F8E06AA969884200D945
:10370000A8610B4900EB800001EB8000211DFFF751
:10371000C5F8E06A2968C96A884202D9012068624E
:1037200070BD002070BD000028000020FC050020B6
:10373000740100202DE9F0472C4D00242746A86B8A
:1037400038B1FFF7B7F8A86B401EA863A86B40B16B
:1037500046E0502080F31188BFF34F8FBFF36F8F87
:10376000FEE72969224E0120D1B3A6F59169804672
:103770003068E0B1F068C46804F11800FFF732F86F
:10378000201DFFF72FF8E06AA969884200D9A861D7
:1037900000EB800109EB8100211DFFF77FF8E06A53
:1037A0002968C96A8842E3D3C5F82480E0E70CB1F0
:1037B000FEF78CFE2C6A4CB14FEA0806FFF7DEFEDE
:1037C00000B16E62641EF9D100202862686A38B1C7
:1037D0000849012738070860BFF34F8FBFF36F8F89
:1037E000FFF788F83846BDE8F08700002800002081
:1037F000FC05002004ED00E010B586B0FEF7D8FB14
:10380000114CA068B8B100200390049005AA04A947
:1038100003A8FFF711F8DDE9032102208DE8070076
:1038200000230AA10B48059AFFF769FEE06010B17A
:1038300006B0012010BD502080F31188BFF34F8FD8
:10384000BFF36F8FFEE7000064000020546D72200C
:1038500053766300BD2500082DE9FF411E4613463F
:1038600002000A9D4FF0000016D0144CA768002FEC
:103870000FD0CDE900130292062917DAFFF76AFE8E
:1038800002284FF000030FD000226946A068FFF71E
:1038900017FC04B0BDE8F081502080F31188BFF31D
:1038A0004F8FBFF36F8FFEE72A46EEE700233246C5
:1038B00069463846FFF7BAFCEBE7000064000020D9
:1038C00000000000000000000000000000000000F8
:1038D000000000F80000000000000033300000008D
:1038E00000100C06100C0600000000000000000094
:1038F00040C07840C0784000043F04043F04040006
:10390000007088FC08300000001820FF211E000015
:10391000F008F000E018000000211C031E211E002A
:1039200000F00888700000001E21232419272110B0
:1039300010160E0000000000000000000000000053
:10394000000000E0180402000000000718204000FA
:1039500000020418E00000000040201807000000EA
:10396000404080F0804040000202010F010202004E
:10397000000000F0000000000101011F0101010032
:10398000000000000000000080B070000000000097
:103990000000000000000000000101010101010120
:1039A00000000000000000000030300000000000B7
:1039B000000000008060180400601806010000008C
:1039C00000E010080810E000000F102020100F0089
:1039D000001010F8000000000020203F2020000010
:1039E0000070080808887000003028242221300068
:1039F00000300888884830000018202020110E0070
:103A00000000C02010F8000000070424243F240018
:103A100000F80888880808000019212020110E00ED
:103A200000E0108888180000000F112020110E00FF
:103A300000380808C83808000000003F00000000F7
:103A40000070880808887000001C222121221C00B8
:103A500000E010080810E0000000312222110F00E1
:103A6000000000C0C0000000000000303000000076
:103A700000000080000000000000806000000000E6
:103A800000008040201008000001020408102000FF
:103A9000404040404040400004040404040404004A
:103AA00000081020408000000020100804020100DF
:103AB000007048080808F0000000003036010000DF
:103AC000C030C828E810E0000718272423140B0092
:103AD0000000C038E0000000203C2302022738200C
:103AE00008F8888888700000203F202020110E00F0
:103AF000C0300808080838000718202020100800E7
:103B000008F808080810E000203F202020100F00CF
:103B100008F88888E8081000203F2020232018009B
:103B200008F88888E8081000203F20000300000003
:103B3000C03008080838000007182020221E0200A4
:103B400008F808000008F808203F210101213F2063
:103B5000000808F8080800000020203F202000008E
:103B600000000808F8080800C08080807F0000007E
:103B700008F888C028180800203F200126382000B7
:103B800008F8080000000000203F2020202030001E
:103B900008F8F800F8F80800203F003F003F200038
:103BA00008F830C00008F808203F200007183F0040
:103BB000E01008080810E0000F10202020100F006F
:103BC00008F808080808F000203F21010101000062
:103BD000E01008080810E0000F18242438504F00A7
:103BE00008F8888888887000203F2000030C302067
:103BF00000708808080838000038202121221C00A5
:103C0000180808F8080818000000203F20000000ED
:103C100008F808000008F808001F202020201F00D6
:103C20000878880000C83808000007380E01000036
:103C3000F80800F80008F800033C0700073C030000
:103C4000081868808068180820302C03032C302066
:103C50000838C800C83808000000203F20000000D5
:103C600010080808C838080020382621202018002D
:103C7000000000FE020202000000007F4040400001
:103C8000000C30C000000000000000010638C00039
:103C900000020202FE000000004040407F000000E1
:103CA0000000040202020400000000000000000006
:103CB0000000000000000000808080808080808004
:103CC00000020204000000000000000000000000EC
:103CD00000008080808000000019242222223F20E2
:103CE00008F8008080000000003F112020110E0025
:103CF0000000008080800000000E112020201100B4
:103D0000000000808088F800000E112020103F2065
:103D10000000808080800000001F222222221300E9
:103D2000008080F0888888180020203F2020000034
:103D30000000808080808000006B949494936000E9
:103D400008F8008080800000203F210000203F20F4
:103D500000809898000000000020203F20200000F4
:103D6000000000809898000000C08080807F0000E4
:103D700008F8000080808000203F24022D302000C1
:103D8000000808F8000000000020203F202000006C
:103D90008080808080808000203F20003F20003F86
:103DA0008080008080800000203F210000203F2094
:103DB0000000808080800000001F202020201F0045
:103DC000808000808000000080FFA12020110E0074
:103DD0000000008080808000000E112020A0FF8065
:103DE000808080008080800020203F212000010012
:103DF0000000808080808000003324242424190067
:103E0000008080E0808000000000001F2020000073
:103E10008080000000808000001F202020103F20B4
:103E2000808080000080808000010E300806010044
:103E300080800080008080800F300C030C300F00E9
:103E400000808000808080000020312E0E31200014
:103E5000808080000080808080818E701806010044
:103E600000808080808080000021302C2221300062
:103E700000000000807C020200000000003F404083
:103E800000000000FF00000000000000FF00000034
:103E90000002027C800000000040403F0000000063
:103EA00000060101020204040000000000000000FE
:103EB000003F0008000000000000000000000000BB
:103EC00000000000000200001800000000000000D8
:103ED00000000000010202030405060708090A0B9E
:103EE0000C0D0E0F10100000000000000000010279
:103EF0000304060708090000000001020304000093
:103F000064656661756C745461736B002C3F0008C6
:103F100000000020A4000000B81B0008D03F0008EB
:103F2000A40000206C1D0000C81B00080000000059
:103F30000000000000000000000000000000000081
:103F40000000000001000000100000000000000060
:103F50000024F40000000000000000000000000049
:103F60000000000000000000000000000000000051
:103F70000000000000000000000000000000000041
:103F80000000000000000000000000000000000031
:103F90000000000000000000000000000000000021
:103FA0000000000000000000000000000000000011
:103FB0000000000000000000000000000000000001
:103FC00000000000AAAAAAAA000000000000000049
:04000005080000ED02
:00000001FF
