:020000040800F2
:10000000081E00209D0100083B1300081312000881
:1000100039130008590200082D19000800000000DB
:1000200000000000000000000000000005010008C2
:100030005B0200080000000049010008CD1500081F
:10004000B7010008B7010008B7010008B7010008B0
:10005000B7010008B7010008B7010008B7010008A0
:10006000B7010008B7010008B7010008B701000890
:10007000B7010008B7010008B7010008B701000880
:10008000B7010008B7010008B7010008B701000870
:10009000B7010008B7010008B7010008B701000860
:1000A000B7010008B7010008B7010008B701000850
:1000B000B701000859160008B7010008B701000889
:1000C000B7010008B7010008B7010008B701000830
:1000D000B701000821190008B7010008B70100089E
:1000E000B7010008B7010008B7010008DFF810D019
:1000F00000F0A0F800480047FD1A0008AFF30080A8
:10010000081E0020224B19680868B0E8F00F80F341
:100110000988BFF36F8F4FF0000080F311884EF015
:100120000D0E70470000000006480068006880F36C
:10013000088862B661B6BFF34F8FBFF36F8F00DFE1
:1001400000BF00BF08ED00E0EFF30980BFF36F8F41
:100150000F4B1A6820E9F00F106008B54FF05000FF
:1001600080F31188BFF34F8FBFF36F8F02F098FCBD
:100170004FF0000080F31188BDE808401968086856
:10018000B0E8F00F80F30988BFF36F8F704700BFAE
:1001900024000020EFF305807047000006488047E8
:1001A00006480047FEE7FEE7FEE7FEE7FEE7FEE75C
:1001B000FEE7FEE7FEE7FEE757160008ED00000841
:1001C00040EA01039B0703D009E008C9121F08C0D9
:1001D000042AFAD203E011F8013B00F8013B521E59
:1001E000F9D27047D2B201E000F8012B491EFBD2D0
:1001F00070470022F6E710B513460A460446194632
:10020000FFF7F0FF204610BD30B50B460146002039
:100210002022012409E021FA02F59D4205D303FAC8
:1002200002F5491B04FA02F52844151EA2F1010249
:10023000F1DC30BD064C074D06E0E06840F00103FC
:1002400094E8070098471034AC42F6D3FFF752FF0A
:10025000F836000818370008FEE7704772B6FEE768
:1002600010B590F821100022022905D004218163E5
:1002700080F82020012010BD01680B6823F00E03D8
:100280000B6001680B6823F001030B6090F84030AD
:10029000C46B012101FA03F3636080F8211080F838
:1002A0002020104610BD000010B590F82110002449
:1002B000022903D00421816301243DE001680A681A
:1002C00022F00E020A6001680A6822F001020A6048
:1002D0001A4A0168914201D1012121E0174A1432E2
:1002E000914201D110211BE0144A2832914201D1E0
:1002F000891515E0114A3C32914201D189140FE071
:100300000E4A5032914202D14FF4803108E00B4A3C
:100310006432914202D14FF4801101E04FF08071BC
:10032000064A083A5160012180F82110002180F826
:100330002010416B01B18847204610BD08000240E3
:100340002DE9F84FDFF8B8910024A9F1040B2346FA
:100350000F2709F1040AABF1040EC9E00125A540FD
:100360002A40AA427DD1674ED1F804C0ACEB060802
:10037000B44532D014DCBCF1030F3AD009DCBCF137
:10038000000F2AD0BCF1010F1CD0BCF1020F31D1FB
:100390001DE0BCF1110F17D0BCF1120F2AD119E0EA
:1003A000B8F5881F19D006DCB8F5803F15D0B8F530
:1003B000801F1FD111E0B8F5001F0ED0B8F5041F43
:1003C00018D10AE0CB6815E0CB681B1D12E0CB68A2
:1003D00008330FE0CB680C330CE08B682BB1012B9A
:1003E0004FF0080303D0456104E0042302E00561F7
:1003F00000E00023FF2A01D8064601E000F10406D0
:100400004FEA840501D9A5F12005D6F8008007FA46
:1004100005FC28EA0C0803FA05F548EA0508C6F8C1
:1004200000804D68ED0062D5374DAE6946F001069B
:10043000AE61AD6924F0030605F001050095334D6A
:1004400006EB050CDCF80850A607360F07FA06F88D
:1004500025EA0805DFF8B880404503D14FF00008D1
:1004600017E044E0DFF8AC80404502D14FF00108CE
:100470000FE0DFF8A480404502D14FF0020808E009
:10048000DFF89880404502D14FF0030801E04FF0BB
:10049000040808FA06F848EA0508CCF808804D6810
:1004A000D9F80060ED024D4601D5164300E09643B1
:1004B0002E604D68DAF80060AD02554601D516434E
:1004C00000E096432E604D68DBF80060AD035D46AA
:1004D00001D5164300E096432E604D68DEF80060BB
:1004E000ED03754601D5164300E096432E60641C6B
:1004F0000D682A46E5407FF431AFBDE8F88F000073
:1005000008040140000011100010024000000140EA
:1005100000080140000C014000100140001401409F
:100520000AB1016170470904FBE7000001488068D7
:1005300070470000140000200248816802781144CE
:100540008160704714000020074810B5016841F031
:1005500010010160032000F0A7F80F2000F006F85A
:1005600000F050F8002010BD0020024030B50546D4
:100570001F4887B0C16941F00201C161C06906A985
:1005800000F00200009001A800F036F90498B0B124
:1005900000F052F940001749174AB0FBF1F1174833
:1005A000491E0260416040F2E7320021C0E90321A8
:1005B0008160816100F018FB040003D015E000F0B9
:1005C0003BF9E8E70D4800F03DFB04000DD11D208C
:1005D00000F03CF8102D07D2002229461D2000F023
:1005E00043F80748056000E0012407B0204630BD0D
:1005F0000010024040420F0000040040E8000020CC
:10060000180000200F4808B5816941F0010181619F
:10061000816901F001010091C16941F08051C1611E
:10062000C069002200F0805000900F21901E00F061
:100630001BF80548416821F0E06141F0007141601C
:1006400008BD00000010024000000140002809DB46
:1006500000F01F02012191404009800000F1E020DC
:10066000C0F8001170470000F0B40E4B1B680C4638
:10067000C3F30223C3F10705042D00D90425191D76
:10068000072901D2002300E0DB1E012606FA05F14E
:10069000491E214099409E40761E16403143F0BCD1
:1006A00001F056B90CED00E0064900F007020868B9
:1006B0004FF6FF03184040EA0220034A1043086047
:1006C000704700000CED00E00000FA052DE9F0474E
:1006D0000F46050061D0434E306800F00700B84275
:1006E00009D2306820F0070038433060306800F0ED
:1006F0000700B84251D128683B4C810712D540070A
:1007000003D5606840F4E06060602878000703D596
:10071000606840F4605060606068A96820F0F00094
:10072000084360602878C00728D06868012810D086
:100730002168022810D0890700292EDA616821F08B
:10074000030101436160FFF7F1FE804641F2883901
:100750000DE021688903EFE78901EDE7FFF7E6FE89
:10076000A0EB0801494502D90320BDE8F087606885
:10077000696800F00C00B0EB810FEFD1306800F039
:100780000700B8420BD9306820F0070038433060CA
:10079000306800F00700B84201D00120E5E7287872
:1007A000400705D56068E96820F4E06008436060B0
:1007B0002878000706D56068296920F4605040EA6F
:1007C000C100606000F058F86168084AC1F3031185
:1007D000515CC8400649086006480068FFF7C6FE3D
:1007E0000020C2E70020024000100240DE36000870
:1007F00020000020180000200F2202600C4A5368DD
:1008000003F003034360536803F0F003836053680D
:1008100003F4E063C36052684FF4E06303EAD2027A
:1008200002610448006800F007000860704700009B
:100830000010024000200240044805490068496851
:10084000044AC1F30221515CC840704720000020D7
:1008500000100240EE360008044805490068496867
:10086000044AC1F3C221515CC840704720000020F7
:1008700000100240EE3600080E4A51680E4801F0A2
:100880000C03042B11D0082B0FD10C48C1F3834368
:10089000C903C05C0AD55168084AC1F34041921EA1
:1008A000515C054A5043B0FBF1F07047044948439E
:1008B000704700000010024000127A00CE36000897
:1008C00000093D002DE9F84F040070D02078C04D9C
:1008D000C00749D06868C0F38100012807D0686864
:1008E000C0F38100022809D16868C00306D52868D2
:1008F000800339D560680028E7D035E06068B0F53E
:10090000803F0BD010B1B0F5A02F11D0286820F493
:1009100080302860286820F4802002E0286840F4B5
:1009200080302860606890B1FFF700FE06460AE05C
:10093000286840F480202860F0E700BFFFF7F6FD4C
:10094000801B642873D828688003F7D50CE0FFF774
:10095000EDFD064605E000BFFFF7E8FD801B6428BB
:10096000F0D828688003F7D420789A4E80074FF09B
:1009700001094FF0000839D5686810F00C0F07D056
:100980006868C0F38100022809D16868C00306D4F2
:100990002868800714D52069012808D110E0206953
:1009A000B0B1C6F80090FFF7C1FD074605E00AE1C7
:1009B000FFF7BCFDC01B0228C4D828688007F7D504
:1009C0002868616920F0F80040EAC10028600DE065
:1009D000C6F80080FFF7AAFD074604E0FFF7A6FD72
:1009E000C01B022823D828688007F7D42078000786
:1009F0002CD57948A169D9B1C0F80090FFF796FDD0
:100A0000074604E0FFF792FDC01B02280FD8686A72
:100A10008007F7D571484FF4FA510068B0FBF1F048
:100A2000009000BF0098411E0091FAD20EE080E0D5
:100A3000C0F80080FFF77AFD074604E0FFF776FD77
:100A4000C01B022875D8686A8007F7D42078400751
:100A500060D5E8690027C00008D4E86940F08050FC
:100A6000E861E869012700F0805000905C48016867
:100A7000C90513D40168834641F480710160FFF712
:100A800055FD824606E000BFFFF750FDA0EB0A00CF
:100A900064284ED8DBF80000C005F5D5E0680128D1
:100AA0000AD008B1052813D0286A20F00100286276
:100AB000286A20F0040002E0286A40F00100286261
:100AC000E06841F2883B98B1FFF730FD82460BE0C9
:100AD000286A40F004002862EEE700BFFFF726FD19
:100AE000A0EB0A0159455AD8286A8007F6D50CE0D0
:100AF000FFF71CFD824605E0FFF718FDA0EB0A0199
:100B000059454CD8286A8007F6D41FB1E86920F00F
:100B10008050E861E06988B36968C1F38101022906
:100B200044D00228C6F8608004D0FFF7FFFC0446DA
:100B300038E034E0FFF7FAFC074604E0FFF7F6FC84
:100B4000C01B02282BD828688001F7D4206AB0F592
:100B5000803F05D16868A16820F4003008436860D0
:100B6000D4E908010843696821F4741108436860F6
:100B7000C6F86090FFF7DAFC044606E025E000BF07
:100B8000FFF7D4FC001B022809D828688001F7D59C
:100B90001BE000BFFFF7CAFC001B022802D903209C
:100BA000BDE8F88F28688001F4D40EE00128F7D062
:100BB0006868226A00F48031914204D1616A00F4CD
:100BC0007010884201D00120EAE70020E8E7000029
:100BD00000100240000042428004424220000020F7
:100BE000007000407047704710B5040003D094F8BF
:100BF0003D0010B107E0012010BD002084F83C004A
:100C0000204600F01EF8022084F83D00211D2068D7
:100C100000F028FD012084F8460084F83E0084F8A6
:100C20003F0084F8400084F8410084F8420084F8D2
:100C3000430084F8440084F8450084F83D00002017
:100C400010BD704790F83D10012901D00120704778
:100C5000022180F83D100168CA6842F00102CA60B2
:100C600000680B49884208D0B0F1804F05D009498F
:100C7000884202D00849884204D1816801F0070106
:100C8000062903D0016841F001010160002070478E
:100C9000002C01400004004000080040704770B57F
:100CA0000446006801694FF00005C943890715D45F
:100CB000C168C943890711D4E91E01610120207769
:100CC000206880698007204602D0FFF7E7FF04E034
:100CD00000F098F8204600F096F825772068016922
:100CE000C943490717D4C168C943490713D46FF0F2
:100CF00004010161022020772068806910F4407FA0
:100D0000204602D0FFF7CAFF04E000F07BF820463F
:100D100000F079F8257720680169C943090716D4DE
:100D2000C168C943090712D46FF0080101610420AA
:100D300020772068C0698007204602D0FFF7AEFF09
:100D400004E000F05FF8204600F05DF825772068A9
:100D50000169C943C90617D4C168C943C90613D478
:100D60006FF010010161082020772068C06910F43D
:100D7000407F204602D0FFF791FF04E000F042F8E8
:100D8000204600F040F8257720680169C943C9076B
:100D900008D1C168C943C90704D1891E0161204631
:100DA00000F032F820680169C943090609D4C16816
:100DB000C943090605D46FF0800101612046FFF7A1
:100DC00011FF20680169C943490609D4C168C943B4
:100DD000490605D46FF040010161204600F01EF87D
:100DE00020680169C94389060BD4C168C9438906D3
:100DF00007D46FF0200101612046BDE87040FFF785
:100E0000F2BE70BD7047704700680349884201D147
:100E1000FFF792BB70470000000400407047704726
:100E200070470000F8B5016804460868CA684B6955
:100E300010F00F0F4FF0000559D003F0010602F437
:100E40009077374365D0C10705D0D10503D5616CD4
:100E500041F001016164410705D5D90703D0616CF8
:100E600041F002016164810705D5D90703D0616CA7
:100E700041F004016164010707D502F0200131430C
:100E800003D0616C41F008016164616C00293AD0C3
:100E9000800604D5900602D5204600F048FC206864
:100EA0004069616CC0F38010090700D460B320462C
:100EB00000F016FC20684069400621D520681430F7
:100EC00050E8001F21F0400140E80012002AF5D14F
:100ED000E06BA8B16D494163E06BFFF7E5F90028CD
:100EE00011D0E06B416B01B0BDE8F04008478306CC
:100EF0000FD593060DD52046BDE8F84000F017BC8D
:100F00002046FFF78DFFF8BD2046FFF789FF656497
:100F1000F8BD266B2023012E7CD1C6067AD5D606D5
:100F200078D508684868009048694FF00206400686
:100F300040D5E16B086840680004000CE8D0A28D41
:100F40008242E5D9E085886920282DD020680C30C0
:100F500050E8001F21F4807140E80012002AF5D10A
:100F60002068143050E8001F21F0010140E8001211
:100F7000002AF5D12068143050E8001F21F040010C
:100F800040E80012002AF5D184F842302563206839
:100F90000C3050E8001F21F0100140E80012002A38
:100FA000F5D1E06BFFF75CF96663A08DE18D401A27
:100FB00081B22AE0A08DE18D401A81B2E08D002837
:100FC000A6D00029A4D022680C3252E8000F20F4E9
:100FD000907042E80007002FF5D12068143050E8E7
:100FE000002F22F0010240E80027002FF5D184F8FD
:100FF0004230256320680C3050E8002F22F01002A8
:1010000040E80023002BF5D166632046FFF707FF79
:10101000F8BDFFE705062BD5150629D594F8410044
:101020002128F5D1A068B0F5805F01D12069B0B169
:10103000206A411C2162216800784860E08C401ED3
:101040000004000CE084E3D12068C16821F0800135
:10105000C1602068C16841F04001C160D8E7206AE2
:101060000088C0F308004860206A801C2062E5E721
:101070004006CDD55006CBD5CA68204622F04002A6
:10108000CA6084F8413000F0C3F8C1E7D116000807
:1010900070B5040004D094F84100002510B106E0BA
:1010A000012070BD84F84050204600F023F8242031
:1010B00084F841002068C16821F40051C1602046D5
:1010C00000F096FB2068016921F4904101612068DD
:1010D000416921F02A0141612068C16841F4005151
:1010E000C1606564202084F8410084F84200656393
:1010F000002070BD30B585B00024009401940294A6
:1011000003940068184988422CD11848816941F439
:1011100080418161816901F480410491816941F0DC
:10112000040181618069124D00F0040004904FF4C5
:101130000070009002200190032003906946284629
:10114000FFF7FEF82815CDE9000469462846029409
:10115000FFF7F6F8002205212520FFF785FA252064
:10116000FFF774FA05B030BD0038014000100240AE
:101170000008014070472DE9F843044690F841000B
:101180001F4616460D46202802D00220BDE8F883EF
:101190007DB176B100206064212084F84100FFF722
:1011A000C5F9A6848046E684A068B0F5805F02D0C9
:1011B00003E00120EAE7206910B12E4600250EE089
:1011C00000260CE08021204600F06EFBA0B9AEB1F5
:1011D00016F8010B21684860E08C401EE084E08C2A
:1011E00043464FF0000200970028EBD14FF040013A
:1011F000204600F059FB30B10320C7E735F8020B59
:10120000C0F30800E6E7202084F841000020BDE795
:101210007047FEE71CB5012001F0C8FC0B4C606074
:1012200010B10BA000F084FB00231A461946606839
:1012300001F062FD054918200831CDE900010023C5
:1012400080220BA10D4801F0F7FF1CBD000000201B
:10125000B6FED6B5D0C5BAC5C1BFB4B4BDA8B3C972
:10126000B9A6A3A1A3A1A3A1A3A10D0A00000000F8
:1012700053544152545F5441534B00005D150008D4
:1012800070B586B000241C48009401940294039425
:10129000816941F010018161816901F010010491BF
:1012A000816941F020018161816901F0200104918F
:1012B000816941F004018161816901F004010491B7
:1012C000816941F00801816180690C4E00F00800DD
:1012D0004FF440750490002229463046FFF720F96C
:1012E00011200095CDE901040220039069463046A3
:1012F000FFF726F806B070BD00100240000C014058
:101300000C4810B50A4901604FF4165141600021A4
:1013100081600C22C160C0E904128161C161FFF7E4
:10132000B7FE002803D0BDE81040FEF797BF10BD00
:1013300000380140A0000020FEE7FEE770B5002461
:101340000021204600F0D6F80025002000F0F4F837
:101350006D1CEDB2802DF8D3641CE4B2082CEFD3E1
:1013600070BD000010B5064C012211022046FFF7A7
:10137000D7F820460122BDE810405102FFF7D0B84F
:10138000000C01402DE9F047144E002407464FF0B1
:1013900080084FF40079B51528FA04F23A4049461E
:1013A0003046FFF7BDF8012229463046FFF7B8F86E
:1013B000002229463046FFF7B3F8641CE4B2082C3B
:1013C000EAD3012229463046FFF7AAF829463046DB
:1013D000BDE8F0470022FFF7A3B80000000C014071
:1013E00070B501220B4D540221462846FFF798F8AC
:1013F0000122160231462846FFF792F800222146C4
:101400002846FFF78DF831462846BDE87040002297
:10141000FFF786B8000C014070B50A4D4FF4007418
:10142000002221462846FFF77BF8012211022846B8
:10143000FFF776F821462846BDE870400122FFF705
:101440006FB80000000C014010B500204FF47A7214
:101450000021491C9142FCD3401C9042F8D3FFF775
:1014600081FFAE2000F057F8D52000F054F880201E
:1014700000F051F8A82000F04EF83F2000F04BF8A3
:10148000D32000F048F8002000F045F8402000F09C
:1014900042F8A12000F03FF8C82000F03CF8DA2024
:1014A00000F039F8122000F036F8812000F033F80F
:1014B000CF2000F030F8D92000F02DF8F12000F016
:1014C0002AF8DB2000F027F8302000F024F8A420D0
:1014D00000F021F8A62000F01EF88D2000F01BF887
:1014E000142000F018F8AF2000F015F8BDE8104007
:1014F000FFF724BF10B50C4640F0B00000F00BF829
:10150000102040EA141000F006F804F00F00BDE8C7
:101510001040AFF3008010B50446FFF761FF78205C
:10152000FFF730FF0020FFF72DFF2046FFF72AFFCF
:10153000BDE81040FFF770BF10B50446FFF750FF3D
:101540007820FFF71FFF4020FFF71CFF2046FFF722
:1015500019FFBDE81040FFF75FBF00001CB511493F
:101560001720CDE90001002380220FA1104801F0CF
:1015700063FE0C4C1820241DCDE9000400238022BA
:101580000CA10E4801F058FE1920CDE900040023FB
:1015900080220BA10C4801F04FFEBDE81C4000204A
:1015A00001F060B90C0000205461736B3100000041
:1015B000212400085461736B32000000B924000834
:1015C0005461736B33000000E924000810B550200B
:1015D00080F31188BFF34F8FBFF36F8F01F098FE38
:1015E00018B104494FF080500860002080F3118842
:1015F00010BD000004ED00E030B58FB02821684632
:10160000FEF7F7FD14210AA8FEF7F3FD01210804F7
:10161000CDE900100024029402250491CDE9075081
:101620004FF4E01009906846FFF74CF908B172B624
:10163000FEE70F20CDE90A054FF48060CDE90C40AC
:1016400002210AA80E94FFF741F8002801D072B6D3
:10165000FEE70FB030BD70470148FFF720BB000028
:10166000E8000020F0B50268164B174C174D4FF0FC
:101670008047984205D0B84203D0A04201D0A8428A
:1016800003D122F070064A683243984205D0B8422E
:1016900003D0A04201D0A84203D122F44074CA680A
:1016A00022434C6922F08002224302608A68C262AF
:1016B0000A688262984201D109690163012141618E
:1016C000F0BD0000002C0140000400400008004074
:1016D00010B5406A0021C185C184FFF7A1FB10BD90
:1016E00001680C3151E8002F22F4907241E8002388
:1016F000002BF5D10168143151E8002F22F00102CE
:1017000041E80023002BF5D1016B012909D10168C3
:101710000C3151E8002F22F0100241E80023002B89
:10172000F5D1202180F8421000210163704708B5EF
:1017300090F84210222901D0022008BD82684FF49F
:1017400080539A4201D1016921B1816A9A421BD02A
:101750004AB10AE00268816A5268C2F308020A804C
:10176000816A891C08E0026972B10268526802F05D
:101770007F020A70816A491C8162C18D491E090479
:10178000090CC18503D01BE002685268F1E70168CB
:10179000CA6822F02002CA600168CA6822F4807216
:1017A000CA6001684A6922F001024A61202180F87A
:1017B000421000214163026B012A03D0FFF7DAFCDB
:1017C000002008BD016301680C3151E8002F22F0B0
:1017D000100241E80023002BF5D101680A68D20607
:1017E00002D50A6849680091818DFFF718FBE7E789
:1017F00070B5044600680169E26821F44051114364
:1018000001612169A0680843616908432168CA68C9
:1018100041F20C639A430243CA6020684169A2699D
:1018200021F44071114341611E492068884202D170
:10183000FFF712F801E0FEF7FFFF00EBC00101EB3C
:101840000012606864218000B2FBF0F3B3FBF1F397
:101850006FF018067343B2FBF0F5B2FBF0F605EB40
:101860008305322303EB0515B5FBF1F5B6FBF1F665
:1018700005F0F00505EB0615B2FBF0F6B2FBF0F053
:10188000B0FBF1F06FF01802504306EB800003EB61
:101890000010B0FBF1F0216800F00F0028448860D0
:1018A00070BD0000003801402DE9F0419846174610
:1018B0000E460446069D27E0681C25D02DB1FEF794
:1018C00035FEA0EB0800A8421ED920680C3050E875
:1018D000001F21F4D07140E80012002AF5D12068E1
:1018E000143050E8001F21F0010140E80012002AE6
:1018F000F5D1202084F8410084F84200002084F8CB
:1019000040000320BDE8F0812068006836EA00004E
:1019100004D00020B842CFD00020F3E70120F9E73F
:101920000148FFF77FBA0000A0000020FEE700009A
:101930000FB4054B10B503A9044A029800F028F82B
:1019400010BC5DF814FB0000E51A00089C000020A4
:101950000907090E002804DB00F1E02080F80014DC
:10196000704700F00F0000F1E02080F8141D704770
:1019700002E008C8121F08C1002AFAD17047704758
:10198000002001E001C1121F002AFBD170470000B6
:101990002DE9FF4F89B09B460446002506E0252827
:1019A0000BD05A460B999047641C6D1C2078002878
:1019B000F5D10DB02846BDE8F08F0027B8460122CA
:1019C000474900E0074314F8013F203B02FA03F0C7
:1019D0000842F7D120782E2819D114F8010F47F0CA
:1019E00004072A280ED06FF02F022078A0F13001D2
:1019F00009290CD808EB880102EB410100EB010832
:101A0000641CF2E70A98641C50F8048B0A90207852
:101A10000028CED0642808D0692806D075281ED0AA
:101A20005A460B9990476D1C58E00A994FF00A09E5
:101A300001C90A91002802DA40422D2102E039054D
:101A400004D52B218DF82010012103E0F90704D0E3
:101A50002021F7E78A4608AE0DE00021FAE70A994F
:101A60004FF00A0901C90A91F7E74946FEF7CCFB96
:101A7000303106F8011D0028F7D1ADEB060000F16A
:101A80002009780701D44FF00108C84502DDA8EB12
:101A9000090000E000208046002706E008A85A461A
:101AA000C05D0B9990476D1C7F1C5745F6DB04E029
:101AB00030205A460B9990476D1CB8F10001A8F1EF
:101AC0000108F5DC05E016F8010B5A460B99904722
:101AD0006D1CB9F10001A9F10109F4DC641C65E792
:101AE0000928010013B54FF6FF7301226946024829
:101AF000FFF741FB00981CBDA0000020FEF724FD6D
:101B0000FFF77AFDFFF7BCFBFFF7FAFBFFF79CFC42
:101B100000F012F8FFF77EFB00F02AF8FEE770B540
:101B2000054600244FF47A7603E0304600F028FDA5
:101B3000641CAC42F9DB70BDEFF3058058B9EFF3DC
:101B4000108040B909490868022801D030B109E085
:101B5000EFF3118030B16FF005007047012008608D
:101B6000002070474FF0FF307047000074000020E5
:101B700010B5EFF3058060B9EFF3108048B90B4959
:101B80000868022802D0012806D00BE0EFF311808C
:101B900040B16FF0050010BD0220086000F034FF76
:101BA000002010BD4FF0FF3010BD00007400002079
:101BB0002DE9F041134C0F46054666692068001D6B
:101BC00000F0FAFC681C07D137B12168BDE8F0418C
:101BD0000D48091D00F040BD20683544B542456000
:101BE000216805D2A068BDE8F041091D00F01CBDC8
:101BF0006068091D00F018FD206B854200D2256346
:101C0000BDE8F08124000020200600202DE9F041ED
:101C1000054600F02DFD2D4C2069401C20612068F8
:101C20002B4F10B1E06930B32BE02560206901280B
:101C300027D1002606EB860007EB800000F0E6FCCB
:101C4000761C382EF6D3234800F0E0FC21481430EF
:101C500000F0DCFC1F48283000F0D8FC1D483C3068
:101C600000F0D4FC1B48503000F0D0FC19486060F4
:101C70001430A06005E02068E96AC06A884200D894
:101C80002560E06A401CE0626864E86AA1698842F5
:101C900000D9A06100EB800007EB8000291D00F057
:101CA000DBFC00F005FDE06900280CD02068E96A43
:101CB000C06A884207D208494FF080500860BFF3DD
:101CC0004F8FBFF36F8FBDE8F0810000240000202C
:101CD00070010020D005002004ED00E038B500F0D0
:101CE000C7FC104CA068C8B90F4800F08FFC0E4824
:101CF000143000F08BFC0C482060143060600A4BFC
:101D000000202833009003F1500210210A2000F037
:101D10007CFFA06010B105A100F048FDBDE838408F
:101D200000F0C6BC6000002034060020546D7251E3
:101D30000000000030B4026C0B46002A0BD0C168D2
:101D40001144C1604468A14201D30168C16030BC44
:101D50001846FEF735BA30BC70472DE9F041856B67
:101D6000174604460026026C82B1C7B1E068FEF750
:101D700027FAE168206C091AE1602268914202D2D8
:101D80006168081AE060022F16D017E02068A8B931
:101D9000606801F021FB0646002060600EE0A0684C
:101DA000FEF70EFA216CA0680844A06061688842C2
:101DB00004D32068A06001E005B16D1E6D1CA56311
:101DC0003046BDE8F08110B5044690F8590058B18E
:101DD00001280CD002280FD0502080F31188BFF3C7
:101DE0004F8FBFF36F8FFEE7206B00F075FC20462E
:101DF000BDE8104000F070BC10BD000010484FF46A
:101E00004061420706D0C01D0D4920F00700411A6D
:101E1000C1F540610B4A00230144C2E900030839BF
:101E2000103A21F0070111604B600B600B1AC0E9FA
:101E3000001393604FF000405360D0607047000083
:101E4000040E002088000020144E154CA6F29C477A
:101E50004FF08058DFF84C9012E000BF00F008FC13
:101E6000F068C568281D00F0A7FB2069401E2061AE
:101E7000E068401EE06000F01BFC2846FFF7A3FF6F
:101E8000E0680028EAD138680128F9D9C9F800804B
:101E9000BFF34F8FBFF36F8FF2E700000C060020F7
:101EA0002400002004ED00E0002807D0002141605C
:101EB00001600B460A46C16000F01EBF704700007B
:101EC00070B51D46049C51B1C4F80020C4E90F014F
:101ED0000121204600F0CCFE84F84C5070BD2460F7
:101EE000F4E72DE9F0470E46DDE9098417468246FE
:101EF00091009946089DA522206BFEF773F96FF0BB
:101F00000301206B01EB8701084420F007077807E5
:101F100007D0502080F31188BFF34F8FBFF36F8F2E
:101F2000FEE72218315C82F83410315C11B1401C9C
:101F30001028F6D3002684F84360382D00D33725C7
:101F4000E562C4E91356201D00F06BFB04F1180094
:101F500000F067FB2461C5F138006462A06166652A
:101F600084F858604A465146384600F047FA2060E7
:101F7000B8F1000F01D0C8F80040BDE8F0870000BC
:101F800030B5114900E011460A688242FBD34B6824
:101F90005C18844203D1406818444860084643688E
:101FA0001C18944209D1084C103C2468A24209D064
:101FB00052681A4442600A6812680260814200D086
:101FC000086030BD0460F9E78800002070B5002487
:101FD00041600B4D0061914206D8D11A826991424D
:101FE00006D2011D686807E09A4203D2994201D3E4
:101FF000012403E0011D286800F016FB204670BD97
:102000006000002010B5044600F032FBA06B28B140
:102010005FF0000400F04CFB204610BD0124F9E7FE
:1020200030B589B0304D55E00498002806DADDE976
:102030000601059A9047049800284BDB069C6069CE
:1020400010B1201D00F0B8FA02A800F0B9F802465D
:1020500004980A283ED2DFE800F00505053D263742
:1020600005053D260598A169034601442046FFF772
:10207000ADFF00B3616A20468847E069012829D195
:10208000002000900598A1690023421819462046B7
:1020900001F0E8FA78B9502080F31188BFF34F8F30
:1020A000BFF36F8FFEE70598A06128B18118134632
:1020B0002046FFF78BFF0DE0502080F31188BFF31F
:1020C0004F8FBFF36F8FFEE794F82C0010B92046B6
:1020D00000F002FB002204A9A86800F01BFF002802
:1020E000A2D109B030BD0000600000202DE9FC4104
:1020F0000F46054600F0CCFC01A800F061F804464C
:10210000019818B101F01CFABDE8FC81224EAFB174
:1021100070680068A8B30027291B3A46B06800F031
:1021200059FB01F00DFA0028EED11C494FF0805008
:102130000860BFF34F8FBFF36F8FE5E7A542EBD881
:1021400001F0FEF930682746C068C468201D00F021
:1021500033FAE069012810D1A0692B4641193A46AB
:102160002046FFF733FF40B10020034601460090B0
:102170002A46204601F076FA20B1616A2046884757
:10218000C2E707E0502080F31188BFF34F8FBFF301
:102190006F8FFEE70127BFE76000002004ED00E03D
:1021A00006484168096829B14168C968C968496831
:1021B000016370474FF0FF31FAE700002400002070
:1021C00070B5054601F09EF8064E0446306984421B
:1021D00003D200F009F8012000E00020286020462A
:1021E000346170BD60000020F8B5194D1FE0C06873
:1021F000C4680668201D00F0DFF9616A2046884740
:10220000E069012813D1A0693044B04206D92461A5
:102210006060211D286800F007FA08E000200346EE
:10222000014600903246204601F01CFA38B1286879
:1022300001680029DBD16968C5E90010F8BD5020AC
:1022400080F31188BFF34F8FBFF36F8FFEE700005D
:102250006000002008484068401C4FF0500080F3A8
:10226000118804D0BFF34F8FBFF36F8FFEE7BFF32A
:102270004F8FBFF36F8FFEE790000020074C206860
:10228000016841B1C0680021D0F80000FFF72EFFBF
:10229000FFF7C6FEF3E701210020F7E7600000200A
:1022A0002DE9F041044600F0E3F994F9455004F1BA
:1022B000240609E0606A48B1304601F009F908B126
:1022C00000F020FB6D1E6DB2002DF3DC4FF0FF36E9
:1022D00084F8456000F0ECF900F0CAF994F9445034
:1022E00004F1100709E0206948B1384601F0F0F820
:1022F00008B100F007FB6D1E6DB2002DF3DC84F811
:102300004460BDE8F04100F0D3B900002DE9F04190
:102310000546002700F0BCFB314E306808B9FFF7D6
:102320006DFDF06805424BD1C5B3083568070ED086
:1023300005F00700C0F108000544680707D05020E9
:1023400080F31188BFF34F8FBFF36F8FFEE72DB37C
:102350007068854234D82248103001460C6801E08C
:1023600020460C466168A94202D221680029F7D1B3
:1023700031688C4224D007682168016060680837A2
:10238000411B10290FD96019420708D0502080F353
:102390001188BFF34F8FBFF36F8FFEE710E04160EE
:1023A0006560FFF7EDFD61687068401A7060B268A3
:1023B000904200D2B060F06801430020C4E90001FF
:1023C00001F0BEF8780707D0502080F31188BFF3E2
:1023D0004F8FBFF36F8FFEE73846BDE8F0810000F6
:1023E000780000200449086818B10868026D521C82
:1023F00002650868704700002400002010B5031F24
:102400004FF080741C601B1F21F001011960191F1F
:10241000024B0B60143940380A6010BD5522000889
:10242000104C4FF0FF3540F6B8364FF47A770EA0D7
:10243000FFF77EFA2946606800F008FE11A0FFF75A
:1024400077FA3046FFF76BFB14A0FFF771FA002311
:102450001A461946606800F04FFC384600F0DCF977
:10246000E5E70000000000206C6F775F7461736B1C
:10247000BBF1C8A1D0C5BAC5C1BF21212121210D01
:102480000A0000006C6F775F7461736BD5FDD4DA5E
:10249000D4CBD0D021212121210D0A006C6F775F90
:1024A0007461736BCACDB7C5D0C5BAC5C1BF212190
:1024B00021210D0A000000004FF47A7403A0FFF7F9
:1024C00037FA204600F0A8F9F8E700006D69646467
:1024D0006C655F7461736BD5FDD4DAD4CBD0D02139
:1024E0002121210D0A0000000F4C4FF0FF364FF460
:1024F0007A750EA0FFF71CFA3146606800F0A6FD61
:1025000011A0FFF715FA2846FFF709FB15A0FFF702
:102510000FFA00231A461946606800F0EDFB2846C2
:1025200000F07AF9E5E700000000002068696768BC
:102530005F7461736BBBF1C8A1D0C5BAC5C1BF21BF
:10254000212121210D0A0000686967685F746173A9
:102550006BD5FDD4DAD4CBD0D021212121210D0A95
:1025600000000000686967685F7461736BCACDB76B
:10257000C5D0C5BAC5C1BF212121210D0A00000067
:1025800030B50C4A00211368DC6A4FF47A7260435C
:10259000B0FBF2F55A6A586A9042FCD002D9A0EB1F
:1025A000020202E0A4EB0202024411440246A942E4
:1025B000F1D330BDE8000020D0E9013201699A6012
:1025C000D0E901235A604A68824201D182684A6098
:1025D000002202610868401E086008687047000019
:1025E000034B036003F15C000860802010607047BB
:1025F0004C070020044B036003F15C0008604FF4BB
:102600008070106070470000A809002000F10801E8
:102610004FF0FF32C0E90112C16001610021016089
:10262000704700210161704730B50B685A1C02D019
:1026300000F1080202E0026904E0224654682568BD
:102640009D42FAD953684B6099608A605160086175
:102650000168491C016030BD42684A6093688B6024
:1026600093685960916008610168491C0160704776
:10267000502080F31188BFF34F8FBFF36F8F0A494B
:102680004868401C486001280CD10848006810F0D8
:10269000FF0F07D0502080F31188BFF34F8FBFF397
:1026A0006F8FFEE7704700009000002004ED00E00F
:1026B0000849486828B1401E486001D180F311885C
:1026C0007047502080F31188BFF34F8FBFF36F8F97
:1026D000FEE700009000002070B5002827D0144DC0
:1026E000A0F108046168E868014207D1502080F336
:1026F0001188BFF34F8FBFF36F8FFEE722683AB1A7
:10270000502080F31188BFF34F8FBFF36F8FFEE728
:102710008143616000F0BCF96068696808446860E2
:102720002046FFF72DFCBDE8704000F009BF70BDEA
:10273000780000204FF0E02000210161816105490F
:102740004FF47A720968B1FBF2F1491E4161072129
:10275000016170472000002010B5FDF71BFD1149F5
:1027600010280ED300F1E02090F8F0030A78904290
:1027700007D2502080F31188BFF34F8FBFF36F8FC4
:10278000FEE709480068896800F4E060884207D9DC
:10279000502080F31188BFF34F8FBFF36F8FFEE798
:1027A00010BD0000900000200CED00E010B5084BBB
:1027B000002200BF53F832401CB1521C082AF9D342
:1027C00010BD43F8321003EBC201486010BD000099
:1027D0003001002070B515460E460446FFF748FF4D
:1027E00094F944100020491C01D184F8440094F964
:1027F0004510491C01D184F84500FFF759FFA06B33
:1028000028B92A46314604F1240000F099F8204600
:10281000BDE87040FFF744BD10B5020014D00F486A
:10282000806B38B1502080F31188BFF34F8FBFF316
:102830006F8FFEE700F02CF900211046FFF7B8F982
:1028400000F07EFE002807D105494FF08050086057
:10285000BFF34F8FBFF36F8F10BD00002400002027
:1028600004ED00E070B50546FFF702FF1E4C05B908
:102870002568281DFFF7A0FEA86A18B105F1180009
:10288000FFF79AFEE06A401CE0622068854207D1AB
:10289000291D1648FFF7E0FEE068401CE06007E0F5
:1028A0002069401E20612846FFF78DFAFFF778FC6B
:1028B000FFF7FEFEE069002814D02068854211D1A0
:1028C000A06B38B1502080F31188BFF34F8FBFF356
:1028D0006F8FFEE706494FF080500860BFF34F8FBF
:1028E000BFF36F8F70BD0000240000200C06002095
:1028F00004ED00E002498A6A02604969416070475C
:102900002400002001490120486270472400002073
:1029100010B50C4650B1094909681831FFF784FE1B
:102920002046BDE810400121FFF742B9502080F356
:102930001188BFF34F8FBFF36F8FFEE72400002095
:1029400070B514460D4668B10A4909681831FFF799
:1029500083FE0CB14FF0FF3521462846BDE870409C
:10296000FFF726B9502080F31188BFF34F8FBFF3D4
:102970006F8FFEE72400002070B504003ED0226D6A
:10298000A2B1E06C884200D30146E06A884235D0AB
:10299000012A33D11A4D2A6894420FD1502080F376
:1029A0001188BFF34F8FBFF36F8FFEE7502080F386
:1029B0001188BFF34F8FBFF36F8FFEE7E162A2690B
:1029C000002A02DBC1F13801A1610E4E00EB80004C
:1029D000616906EB8000814210D1201DFFF7ECFDFC
:1029E000E06AA969884200D9A86100EB800006EB83
:1029F0008000211DBDE87040FFF72EBE70BD0000B5
:102A0000240000207001002030B587B0002403941A
:102A100005AA04A903A80494FFF7E2FDDDE9030178
:102A20000094CDE90110002315A11748059A00F084
:102A300030FC164D002868631FD000F0E3FD01282C
:102A400009D0401C19D1502080F31188BFF34F8F5B
:102A5000BFF36F8FFEE7502080F31188BFF34F8FD5
:102A6000BFF36F8F4FF0FF3028630120E8616C6186
:102A700007B0BDE8304000F045B807B030BD0000F9
:102A800049444C4500000000491E00082400002075
:102A90000248816B491C81637047000024000020BC
:102AA000164810B5816B11B10121416210BD0021A2
:102AB00041628169124A01E0B9B1491E01EB81030B
:102AC00052F82330002BF7D001EB810302EB830295
:102AD00002F1080453685B685360A34201D15B684C
:102AE0005360DA680260816110BD502080F3118864
:102AF000BFF34F8FBFF36F8FFEE70000240000206D
:102B0000700100201CB5264908780190FF2008704C
:102B100008788DF800009DF800009DF8002000F076
:102B2000F000904207D0502080F31188BFF34F8F00
:102B3000BFF36F8FFEE79DF800001A4B00F05000C6
:102B400018700720986005E09DF8002052008DF86D
:102B50000020401E9DF800201206F5D4986003283E
:102B600007D0502080F31188BFF34F8FBFF36F8FD2
:102B7000FEE74FF440709860019808700A480168B9
:102B800041F470010160016841F070410160FFF79C
:102B9000D1FD00205860FDF7C7FA00201CBD0000E1
:102BA00000E400E09000002020ED00E010B50246B7
:102BB0000021012000F005F80446FFF775F92046D2
:102BC00010BDF8B517460E46050014D0DEB105FB62
:102BD00006F05030FFF79AFB04000AD0002084F87A
:102BE000460004F150023B46314628460094FFF768
:102BF00067F92046F8BD502080F31188BFF34F8F4E
:102C0000BFF36F8FFEE70020E3E738B5049D18B1EE
:102C100053B1CAB181B120E0502080F31188BFF3D5
:102C20004F8FBFF36F8FFEE7502080F31188BFF303
:102C30004F8FBFF36F8FFEE7502080F31188BFF3F3
:102C40004F8FBFF36F8FFEE739B1502080F31188AB
:102C5000BFF34F8FBFF36F8FFEE750241C46012355
:102C600084F846302B460094FFF72AF9204638BDF9
:102C700070B50D46040025D0FFF7FAFCD4E90F200B
:102C8000216802FB001161600021A1632168A1603D
:102C90000A46D4E90F01401E00FB0121E1602146F4
:102CA0004FF0FF3001F8440F487004F110008DB16F
:102CB000FFF7ACFC04F12400FFF7A8FCFFF7F8FCD9
:102CC000012070BD502080F31188BFF34F8FBFF3F8
:102CD0006F8FFEE721690029F0D000F0F9FB002892
:102CE000ECD004494FF080500860BFF34F8FBFF322
:102CF0006F8FE3E704ED00E02DE9FF4782B01D464A
:102D00008A464FF00008040003D0BAF1000F08D043
:102D100011E0502080F31188BFF34F8FBFF36F8F06
:102D2000FEE7206C38B1502080F31188BFF34F8F3D
:102D3000BFF36F8FFEE7022D0AD1E06B012807D0A9
:102D4000502080F31188BFF34F8FBFF36F8FFEE7E2
:102D500000F0CAFA3F4F4FF000094FF0805648B9D3
:102D6000049838B1502080F31188BFF34F8FBFF320
:102D70006F8FFEE7FFF77CFCA06BE16B884207D307
:102D8000022D05D00498D0B1B8F1000F1AD01EE082
:102D90002A4651462046FEF7E0FF616A19B104F168
:102DA000240000F095FB20B13E60BFF34F8FBFF3CE
:102DB0006F8FFFF77DFC012006B0BDE8F087FFF7BD
:102DC00077FC22E06846FFF795FD4FF00108FFF71A
:102DD0006FFCFFF75DFEFFF74BFC94F94400401CCD
:102DE00001D184F8449094F94500401C01D184F845
:102DF0004590FFF75DFC04A9684600F0E3F930B1A7
:102E00002046FFF74DFA00F09BFB0020D4E7FFF7C8
:102E10002FFCA06BE16B884213D1FFF749FC04F152
:102E200010000499FFF774FD2046FFF739FA00F00F
:102E300087FB00289ED13E60BFF34F8FBFF36F8F9B
:102E400098E7FFF735FC2046FFF72AFA00F078FBF9
:102E500090E7000004ED00E02DE9F0471F469046A2
:102E60008946040003D0B9F1000F08D011E05020CA
:102E700080F31188BFF34F8FBFF36F8FFEE7206C95
:102E800038B1502080F31188BFF34F8FBFF36F8F9D
:102E9000FEE7022F0AD1E06B012807D0502080F313
:102EA0001188BFF34F8FBFF36F8FFEE7FFF754FC1E
:102EB0005020EFF3118680F31188BFF34F8FBFF3DB
:102EC0006F8FA06BE16B884206D3022F04D00020E5
:102ED00086F31188BDE8F08794F945503A46494693
:102EE0002046FEF73AFF681C04D06D1C84F845505C
:102EF0000120EDE7606A0028FAD004F1240000F018
:102F0000E7FA0028F4D0B8F1000FF1D00121C8F899
:102F10000010EDE72DE9F747002683B08A4604004C
:102F200003D0BAF1000F08D011E0502080F31188CF
:102F3000BFF34F8FBFF36F8FFEE7206C38B1502087
:102F400080F31188BFF34F8FBFF36F8FFEE700F060
:102F5000CBF9DFF8F4804FF000094FF0805748B903
:102F6000059838B1502080F31188BFF34F8FBFF31D
:102F70006F8FFEE7FFF77CFBA56BC5B1514620467E
:102F8000FEF7D8FE6D1EA563206950B104F1100054
:102F900000F09EFA28B1C8F80070BFF34F8FBFF35E
:102FA0006F8FFFF785FB012006B0BDE8F08705981D
:102FB00008B11EB106E0FFF77BFB27E06846FFF78C
:102FC00099FC0126FFF774FBFFF762FDFFF750FB4A
:102FD00094F94400401C01D184F8449094F94500D0
:102FE000401C01D184F84590FFF762FB05A96846B3
:102FF00000F0E8F8002820460AD0FFF751F900F069
:103000009FFA2046FEF7FEFF0028B3D00020CBE752
:10301000FEF7F8FF90B104F124000599FFF778FC62
:103020002046FFF73DF900F08BFA0028A2D1C8F83E
:103030000070BFF34F8FBFF36F8F9BE72046FFF702
:103040002FF900F07DFA95E704ED00E02DE9F34358
:10305000002683B00400354609D0206C78B150209A
:1030600080F31188BFF34F8FBFF36F8FFEE75020BF
:1030700080F31188BFF34F8FBFF36F8FFEE700F02F
:1030800033F9DFF83C814FF000094FF0805748B921
:10309000049838B1502080F31188BFF34F8FBFF3ED
:1030A0006F8FFEE7FFF7E4FAA06BC8B1401EA06384
:1030B000206810B9FFF796F96060206950B104F1FB
:1030C000100000F005FA28B1C8F80070BFF34F8F68
:1030D000BFF36F8FFFF7ECFA012005B0BDE8F08376
:1030E000049808B166B10FE03DB1502080F311881B
:1030F000BFF34F8FBFF36F8FFEE7FFF7D9FA5DE0A5
:103100006846FFF7F7FB0126FFF7D2FAFFF7C0FC8E
:10311000FFF7AEFA94F94400401C01D184F84490C2
:1031200094F94500401C01D184F84590FFF7C0FA9E
:1031300004A9684600F046F80028204612D0FFF7A0
:10314000AFF800F0FDF92046FEF75CFF0028A9D09B
:103150009DB3FFF78DFA606A50B3206B0068C0F131
:10316000380126E0FEF74EFFE0B1206838B9FFF7DE
:103170007FFA606800F070F90546FFF799FA04F1EC
:1031800024000499FFF7C4FB2046FFF789F800F0FC
:10319000D7F9002886D1C8F80070BFF34F8FBFF36E
:1031A0006F8F7FE72046FFF77BF800F0C9F979E7DA
:1031B00000216068FFF7E0FB9FE7FFE700208CE756
:1031C00004ED00E02DE9F0410C46050011D0C4B13A
:1031D000FFF74EFA174B5A696E682068911B471C1F
:1031E00017D02F689B6A9F4219D0964217D80124A6
:1031F00010E0502080F31188BFF34F8FBFF36F8F23
:10320000FEE7502080F31188BFF34F8FBFF36F8F1D
:10321000FEE70024FFF74CFA2046BDE8F081884223
:1032200005D9401A20602846FFF764FBF1E700202B
:103230002060DCE7240000202DE9FF5F8346DDE904
:103240000E87994616468A469000FFF75FF80500FC
:103250001CD05C20FFF75AF8040014D0002025632E
:1032600084F85900CDE90240CDE900874B4632464B
:1032700051465846FEF735FE2046FEF7C7FC0120B2
:1032800004B0BDE8F09F2846FFF726FA4FF0FF3064
:10329000F6E7F0B585B0DDE90B640A9DA6B1DCB1B7
:1032A0005C2700972663022684F85960002604AF45
:1032B000CDE90246CDE90057FEF713FE2046FEF7A2
:1032C000A5FC049805B0F0BD502080F31188BFF331
:1032D0004F8FBFF36F8FFEE7502080F31188BFF34D
:1032E0004F8FBFF36F8FFEE70548C16919B1806B3F
:1032F00018B100207047012070470220704700007D
:10330000240000200148406970470000240000208C
:103310002DE9F0412E4C0027A06B40B1206A401CE3
:103320002062606A00B101273846BDE8F081666915
:10333000761C666113D16068006838B1502080F354
:103340001188BFF34F8FBFF36F8FFEE76068A168EE
:103350006160A060A06A401CA062FEF721FF206BA4
:10336000DFF87080864209D36068006880B16068C9
:10337000C068C568686886420DD220632068C06A4C
:1033800000EB800158F821000128CAD90127C8E7BD
:103390004FF0FF30F1E7281DFFF70EF9A86A18B1CA
:1033A00005F11800FFF708F9E86AA169884200D919
:1033B000A06100EB800108EB8100291DFFF74CF9AB
:1033C000E86A2168C96A8842CED30127CCE70000A9
:1033D000240000207001002070B504004FF00001AF
:1033E00033D01B4D2868844207D0502080F31188C9
:1033F000BFF34F8FBFF36F8FFEE7206D38B1401ED4
:103400002065E36CE26A9A421FD040B11DE0502073
:1034100080F31188BFF34F8FBFF36F8FFEE7201D3E
:10342000FFF7CAF8E06CE062C0F13800A061E06A22
:10343000A969884200D9A861064900EB800001EB28
:103440008000211DFFF708F90121084670BD00002A
:10345000240000207001002070B504004FF000002F
:103460002BD0194DE16A2A68D26A914226D2A0690E
:10347000002804DB2868C06AC0F13800A061134E40
:1034800001EB8101606906EB8101884211D1201DA9
:10349000FFF792F82868C06AE062A969884200D9FB
:1034A000A86100EB800006EB8000211DFFF7D4F837
:1034B00002E02868C06AE062012070BDE16C2A6801
:1034C000D26A9142F8D370BD240000207001002020
:1034D00070B5C068C46854B104F118000646FFF71F
:1034E0006BF8144DA86B50B13146134815E05020CD
:1034F00080F31188BFF34F8FBFF36F8FFEE7201D5E
:10350000FFF75AF8E06AA969884200D9A8610B4917
:1035100000EB800001EB8000211DFFF79DF8E06AC1
:103520002968C96A884202D90120686270BD0020FA
:1035300070BD000024000020F8050020700100206C
:103540002DE9F0472C4D00242746A86B38B1FFF732
:103550008FF8A86B401EA863A86B40B146E05020CE
:1035600080F31188BFF34F8FBFF36F8FFEE7296998
:10357000224E0120D1B3A6F5916980463068E0B1B2
:10358000F068C46804F11800FFF716F8201DFFF773
:1035900013F8E06AA969884200D9A86100EB8001AC
:1035A00009EB8100211DFFF757F8E06A2968C96A15
:1035B0008842E3D3C5F82480E0E70CB1FEF7F0FDC4
:1035C0002C6A4CB14FEA0806FFF7A2FE00B16E620A
:1035D000641EF9D100202862686A38B108490127C1
:1035E00038070860BFF34F8FBFF36F8FFFF760F8A6
:1035F0003846BDE8F087000024000020F8050020D0
:1036000004ED00E010B586B0FEF768FB114CA06831
:10361000B8B100200390049005AA04A903A8FEF7FE
:10362000E9FFDDE9032102208DE8070000230AA15C
:103630000B48059AFFF72DFEE06010B106B001209F
:1036400010BD502080F31188BFF34F8FBFF36F8FF1
:10365000FEE7000060000020546D72205376630086
:103660007D2200082DE9FF411E46134602000A9DF7
:103670004FF0000016D0144CA768002F0FD0CDE9F2
:1036800000130292062917DAFFF72EFE02284FF0E8
:1036900000030FD000226946A068FFF72DFB04B09D
:1036A000BDE8F081502080F31188BFF34F8FBFF346
:1036B0006F8FFEE72A46EEE700233246694638461A
:1036C000FFF7CAFBEBE700006000002001020203E5
:1036D0000405060708090A0B0C0D0E0F1010000058
:1036E00000000000000001020304060708090000B2
:1036F0000000010203040000183700080000002049
:10370000A000000070190008B8370008A0000020D1
:10371000681D000080190008000000000000000083
:103720000000000000000000000000000100000098
:1037300010000000000000000024F4000000000061
:103740000000000000000000000000000000000079
:103750000000000000000000000000000000000069
:103760000000000000000000000000000000000059
:103770000000000000000000000000000000000049
:103780000000000000000000000000000000000039
:103790000000000000000000000000000000000029
:1037A000000000000000000000000000AAAAAAAA71
:0837B000000000000000000011
:04000005080000ED02
:00000001FF
