:020000040800F2
:10000000081E00209D010008531400081B12000860
:100010005114000859020008791B00080000000074
:1000200000000000000000000000000005010008C2
:100030005B020008000000004901000819180008D0
:10004000B7010008B7010008B7010008B7010008B0
:10005000B7010008B7010008B7010008B7010008A0
:10006000B7010008B7010008B7010008B701000890
:10007000B7010008B7010008B7010008B701000880
:10008000B7010008B7010008B7010008B701000870
:10009000B7010008B7010008B7010008B701000860
:1000A000B7010008B7010008B7010008B701000850
:1000B000B7010008A5180008B7010008B70100083B
:1000C000B7010008B7010008B7010008B701000830
:1000D000B70100086D1B0008B7010008B701000850
:1000E000B7010008B7010008B7010008DFF810D019
:1000F00000F0A0F800480047491D0008AFF3008059
:10010000081E0020224B19680868B0E8F00F80F341
:100110000988BFF36F8F4FF0000080F311884EF015
:100120000D0E70470000000006480068006880F36C
:10013000088862B661B6BFF34F8FBFF36F8F00DFE1
:1001400000BF00BF08ED00E0EFF30980BFF36F8F41
:100150000F4B1A6820E9F00F106008B54FF05000FF
:1001600080F31188BFF34F8FBFF36F8F02F080FDD4
:100170004FF0000080F31188BDE808401968086856
:10018000B0E8F00F80F30988BFF36F8F704700BFAE
:1001900028000020EFF305807047000006488047E4
:1001A00006480047FEE7FEE7FEE7FEE7FEE7FEE75C
:1001B000FEE7FEE7FEE7FEE7A3180008ED000008F3
:1001C00040EA01039B0703D009E008C9121F08C0D9
:1001D000042AFAD203E011F8013B00F8013B521E59
:1001E000F9D27047D2B201E000F8012B491EFBD2D0
:1001F00070470022F6E710B513460A460446194632
:10020000FFF7F0FF204610BD30B50B460146002039
:100210002022012409E021FA02F59D4205D303FAC8
:1002200002F5491B04FA02F52844151EA2F1010249
:10023000F1DC30BD064C074D06E0E06840F00103FC
:1002400094E8070098471034AC42F6D3FFF752FF0A
:10025000D43E0008F43E0008FEE7704772B6FEE7A1
:1002600010B590F821100022022905D004218163E5
:1002700080F82020012010BD01680B6823F00E03D8
:100280000B6001680B6823F001030B6090F84030AD
:10029000C46B012101FA03F3636080F8211080F838
:1002A0002020104610BD000010B590F82110002449
:1002B000022903D00421816301243DE001680A681A
:1002C00022F00E020A6001680A6822F001020A6048
:1002D0001A4A0168914201D1012121E0174A1432E2
:1002E000914201D110211BE0144A2832914201D1E0
:1002F000891515E0114A3C32914201D189140FE071
:100300000E4A5032914202D14FF4803108E00B4A3C
:100310006432914202D14FF4801101E04FF08071BC
:10032000064A083A5160012180F82110002180F826
:100330002010416B01B18847204610BD08000240E3
:100340002DE9F84FDFF8B8910024A9F1040B2346FA
:100350000F2709F1040AABF1040EC9E00125A540FD
:100360002A40AA427DD1674ED1F804C0ACEB060802
:10037000B44532D014DCBCF1030F3AD009DCBCF137
:10038000000F2AD0BCF1010F1CD0BCF1020F31D1FB
:100390001DE0BCF1110F17D0BCF1120F2AD119E0EA
:1003A000B8F5881F19D006DCB8F5803F15D0B8F530
:1003B000801F1FD111E0B8F5001F0ED0B8F5041F43
:1003C00018D10AE0CB6815E0CB681B1D12E0CB68A2
:1003D00008330FE0CB680C330CE08B682BB1012B9A
:1003E0004FF0080303D0456104E0042302E00561F7
:1003F00000E00023FF2A01D8064601E000F10406D0
:100400004FEA840501D9A5F12005D6F8008007FA46
:1004100005FC28EA0C0803FA05F548EA0508C6F8C1
:1004200000804D68ED0062D5374DAE6946F001069B
:10043000AE61AD6924F0030605F001050095334D6A
:1004400006EB050CDCF80850A607360F07FA06F88D
:1004500025EA0805DFF8B880404503D14FF00008D1
:1004600017E044E0DFF8AC80404502D14FF00108CE
:100470000FE0DFF8A480404502D14FF0020808E009
:10048000DFF89880404502D14FF0030801E04FF0BB
:10049000040808FA06F848EA0508CCF808804D6810
:1004A000D9F80060ED024D4601D5164300E09643B1
:1004B0002E604D68DAF80060AD02554601D516434E
:1004C00000E096432E604D68DBF80060AD035D46AA
:1004D00001D5164300E096432E604D68DEF80060BB
:1004E000ED03754601D5164300E096432E60641C6B
:1004F0000D682A46E5407FF431AFBDE8F88F000073
:1005000008040140000011100010024000000140EA
:1005100000080140000C014000100140001401409F
:100520008068084000D0012070470AB1016170471F
:100530000904FBE7014880687047000018000020AC
:1005400002488168027811448160704718000020D9
:10055000074810B5016841F010010160032000F068
:10056000A7F80F2000F006F800F050F8002010BDAA
:100570000020024030B505461F4887B0C16941F0F0
:100580000201C161C06906A900F00200009001A843
:1005900000F036F90498B0B100F052F94000174964
:1005A000174AB0FBF1F11748491E0260416040F262
:1005B000E7320021C0E903218160816100F018FB6E
:1005C000040003D015E000F03BF9E8E70D4800F027
:1005D0003DFB04000DD11D2000F03CF8102D07D28A
:1005E000002229461D2000F043F80748056000E07E
:1005F000012407B0204630BD0010024040420F00E9
:1006000000040040EC0000201C0000200F4808B54A
:10061000816941F001018161816901F0010100916D
:10062000C16941F08051C161C069002200F0805071
:1006300000900F21901E00F01BF80548416821F042
:10064000E06141F00071416008BD0000001002400F
:1006500000000140002809DB00F01F020121914049
:100660004009800000F1E020C0F800117047000050
:10067000F0B40E4B1B680C46C3F30223C3F107050D
:10068000042D00D90425191D072901D2002300E0FB
:10069000DB1E012606FA05F1491E214099409E40C5
:1006A000761E16403143F0BC01F078BA0CED00E044
:1006B000064900F0070208684FF6FF03184040EAB9
:1006C0000220034A10430860704700000CED00E070
:1006D0000000FA052DE9F0470F46050061D0434EB2
:1006E000306800F00700B84209D2306820F00700F7
:1006F00038433060306800F00700B84251D12868B4
:100700003B4C810712D5400703D5606840F4E06098
:1007100060602878000703D5606840F4605060602E
:100720006068A96820F0F000084360602878C0077E
:1007300028D06868012810D02168022810D08907C5
:1007400000292EDA616821F0030101436160FFF79F
:10075000F1FE804641F288390DE021688903EFE718
:100760008901EDE7FFF7E6FEA0EB0801494502D954
:100770000320BDE8F0876068696800F00C00B0EB0A
:10078000810FEFD1306800F00700B8420BD9306814
:1007900020F0070038433060306800F00700B842AE
:1007A00001D00120E5E72878400705D56068E968B1
:1007B00020F4E060084360602878000706D5606890
:1007C000296920F4605040EAC100606000F058F8E8
:1007D0006168084AC1F30311515CC84006490860CA
:1007E00006480068FFF7C6FE0020C2E7002002406E
:1007F00000100240AE3E0008240000201C00002033
:100800000F2202600C4A536803F0030343605368ED
:1008100003F0F0038360536803F4E063C36052683D
:100820004FF4E06303EAD20202610448006800F07A
:1008300007000860704700000010024000200240DE
:100840000448054900684968044AC1F30221515C23
:10085000C84070472400002000100240BE3E00083F
:100860000448054900684968044AC1F3C221515C43
:10087000C84070472400002000100240BE3E00081F
:100880000E4A51680E4801F00C03042B11D0082BBE
:100890000FD10C48C1F38343C903C05C0AD551682A
:1008A000084AC1F34041921E515C054A5043B0FBD7
:1008B000F1F07047044948437047000000100240BF
:1008C00000127A009E3E000800093D002DE9F84F15
:1008D000040070D02078C04DC00749D06868C0F3CC
:1008E0008100012807D06868C0F38100022809D17F
:1008F0006868C00306D52868800339D56068002879
:10090000E7D035E06068B0F5803F0BD010B1B0F5AE
:10091000A02F11D0286820F480302860286820F4A7
:10092000802002E0286840F480302860606890B140
:10093000FFF700FE06460AE0286840F480202860A1
:10094000F0E700BFFFF7F6FD801B642873D8286826
:100950008003F7D50CE0FFF7EDFD064605E000BF8C
:10096000FFF7E8FD801B6428F0D828688003F7D4DF
:1009700020789A4E80074FF001094FF0000839D5D2
:10098000686810F00C0F07D06868C0F38100022877
:1009900009D16868C00306D42868800714D5206987
:1009A000012808D110E02069B0B1C6F80090FFF727
:1009B000C1FD074605E00AE1FFF7BCFDC01B0228A8
:1009C000C4D828688007F7D52868616920F0F80046
:1009D00040EAC10028600DE0C6F80080FFF7AAFDDC
:1009E000074604E0FFF7A6FDC01B022823D82868AD
:1009F0008007F7D4207800072CD57948A169D9B1B0
:100A0000C0F80090FFF796FD074604E0FFF792FD5F
:100A1000C01B02280FD8686A8007F7D571484FF4C9
:100A2000FA510068B0FBF1F0009000BF0098411E41
:100A30000091FAD20EE080E0C0F80080FFF77AFD66
:100A4000074604E0FFF776FDC01B022875D8686AE8
:100A50008007F7D42078400760D5E8690027C000F8
:100A600008D4E86940F08050E861E869012700F0A7
:100A7000805000905C480168C90513D40168834622
:100A800041F480710160FFF755FD824606E000BF2A
:100A9000FFF750FDA0EB0A0064284ED8DBF80000F9
:100AA000C005F5D5E06801280AD008B1052813D0A3
:100AB000286A20F001002862286A20F0040002E081
:100AC000286A40F001002862E06841F2883B98B152
:100AD000FFF730FD82460BE0286A40F004002862F0
:100AE000EEE700BFFFF726FDA0EB0A0159455AD8F3
:100AF000286A8007F6D50CE0FFF71CFD824605E06A
:100B0000FFF718FDA0EB0A0159454CD8286A800769
:100B1000F6D41FB1E86920F08050E861E06988B33D
:100B20006968C1F38101022944D00228C6F86080B7
:100B300004D0FFF7FFFC044638E034E0FFF7FAFC8E
:100B4000074604E0FFF7F6FCC01B02282BD82868F4
:100B50008001F7D4206AB0F5803F05D16868A168AC
:100B600020F4003008436860D4E90801084369684C
:100B700021F4741108436860C6F86090FFF7DAFC4E
:100B8000044606E025E000BFFFF7D4FC001B022866
:100B900009D828688001F7D51BE000BFFFF7CAFC21
:100BA000001B022802D90320BDE8F88F28688001C5
:100BB000F4D40EE00128F7D06868226A00F480318E
:100BC000914204D1616A00F47010884201D0012082
:100BD000EAE70020E8E7000000100240000042427F
:100BE000800442422400002000700040704770479B
:100BF00010B5040003D094F83D0010B107E00120C7
:100C000010BD002084F83C00204600F01EF80220B1
:100C100084F83D00211D206800F04AFE012084F880
:100C2000460084F83E0084F83F0084F8400084F8D1
:100C3000410084F8420084F8430084F8440084F8BA
:100C4000450084F83D00002010BD704790F83D102D
:100C5000012901D001207047022180F83D10016870
:100C6000CA6842F00102CA6000680B49884208D095
:100C7000B0F1804F05D00949884202D00849884226
:100C800004D1816801F00701062903D0016841F011
:100C90000101016000207047002C01400004004069
:100CA00000080040704770B50446006801694FF0C5
:100CB0000005C943890715D4C168C943890711D400
:100CC000E91E0161012020772068806980072046A5
:100CD00002D0FFF7E7FF04E000F098F8204600F0AC
:100CE00096F8257720680169C943490717D4C16878
:100CF000C943490713D46FF0040101610220207732
:100D00002068806910F4407F204602D0FFF7CAFFB8
:100D100004E000F07BF8204600F079F825772068A1
:100D20000169C943090716D4C168C943090712D428
:100D30006FF008010161042020772068C0698007F6
:100D4000204602D0FFF7AEFF04E000F05FF8204637
:100D500000F05DF8257720680169C943C90617D4FA
:100D6000C168C943C90613D46FF01001016108209E
:100D700020772068C06910F4407F204602D0FFF73A
:100D800091FF04E000F042F8204600F040F825779B
:100D900020680169C943C90708D1C168C943C907A7
:100DA00004D1891E0161204600F032F820680169F3
:100DB000C943090609D4C168C943090605D46FF0BF
:100DC000800101612046FFF711FF20680169C943D6
:100DD000490609D4C168C943490605D46FF04001EA
:100DE0000161204600F01EF820680169C9438906A8
:100DF0000BD4C168C943890607D46FF02001016193
:100E00002046BDE87040FFF7F2BE70BD70477047E6
:100E100000680349884201D1FFF792BB7047000088
:100E2000000400407047704770470000F8B5016843
:100E300004460868CA684B6910F00F0F4FF00005B0
:100E400059D003F0010602F49077374365D0C1070B
:100E500005D0D10503D5616C41F001016164410702
:100E600005D5D90703D0616C41F0020161648107A7
:100E700005D5D90703D0616C41F004016164010715
:100E800007D502F02001314303D0616C41F0080125
:100E90006164616C00293AD0800604D5900602D5C1
:100EA000204600F06AFD20684069616CC0F3801044
:100EB000090700D460B3204600F038FD206840697F
:100EC000400621D52068143050E8001F21F0400171
:100ED00040E80012002AF5D1E06BA8B16D494163EA
:100EE000E06BFFF7E1F9002811D0E06B416B01B036
:100EF000BDE8F040084783060FD593060DD5204680
:100F0000BDE8F84000F039BD2046FFF78DFFF8BD81
:100F10002046FFF789FF6564F8BD266B2023012E6C
:100F20007CD1C6067AD5D60678D508684868009080
:100F300048694FF00206400640D5E16B08684068FA
:100F40000004000CE8D0A28D8242E5D9E0858869D2
:100F500020282DD020680C3050E8001F21F480712B
:100F600040E80012002AF5D12068143050E8001F34
:100F700021F0010140E80012002AF5D12068143068
:100F800050E8001F21F0400140E80012002AF5D18E
:100F900084F84230256320680C3050E8001F21F0AF
:100FA000100140E80012002AF5D1E06BFFF758F974
:100FB0006663A08DE18D401A81B22AE0A08DE18D9B
:100FC000401A81B2E08D0028A6D00029A4D0226862
:100FD0000C3252E8000F20F4907042E80007002F16
:100FE000F5D12068143050E8002F22F0010240E8CB
:100FF0000027002FF5D184F84230256320680C309B
:1010000050E8002F22F0100240E80023002BF5D119
:1010100066632046FFF707FFF8BDFFE705062BD5FF
:10102000150629D594F841002128F5D1A068B0F51E
:10103000805F01D12069B0B1206A411C2162216822
:1010400000784860E08C401E0004000CE084E3D18E
:101050002068C16821F08001C1602068C16841F04A
:101060004001C160D8E7206A0088C0F308004860EA
:10107000206A801C2062E5E74006CDD55006CBD51E
:10108000CA68204622F04002CA6084F8413000F06D
:10109000C3F8C1E71D19000870B5040004D094F826
:1010A0004100002510B106E0012070BD84F84050D9
:1010B000204600F023F8242084F841002068C1680D
:1010C00021F40051C160204600F0B8FC206801699D
:1010D00021F4904101612068416921F02A014161B8
:1010E0002068C16841F40051C1606564202084F823
:1010F000410084F842006563002070BD30B585B0C2
:1011000000240094019402940394006818498842D2
:101110002CD11848816941F480418161816901F4D1
:1011200080410491816941F0040181618069124D1F
:1011300000F0040004904FF4007000900220019031
:101140000320039069462846FFF7FAF82815CDE9F1
:101150000004694628460294FFF7F2F800220521B0
:101160002520FFF785FA2520FFF774FA05B030BD7A
:1011700000380140001002400008014070472DE98E
:10118000F843044690F841001F4616460D462028B5
:1011900002D00220BDE8F8837DB176B10020606402
:1011A000212084F84100FFF7C5F9A6848046E68433
:1011B000A068B0F5805F02D003E00120EAE7206973
:1011C00010B12E4600250EE000260CE080212046BE
:1011D00000F090FCA0B9AEB116F8010B2168486090
:1011E000E08C401EE084E08C43464FF00002009704
:1011F0000028EBD14FF04001204600F07BFC30B1DD
:101200000320C7E735F8020BC0F30800E6E720200B
:1012100084F841000020BDE77047FEE77FB5002459
:101220004FF48040084D0090019402946946039465
:101230002846FFF785F86814CDE90004694628467A
:101240000294FFF77DF87FBD000C014070B5164D8C
:101250004FF48046002431462846FFF761F960B913
:10126000142001F0C1FB31462846FFF759F9002848
:10127000F9D0142001F0B8FB01244FF40056314698
:101280002846FFF74DF960B9142001F0ADFB314657
:101290002846FFF745F90028F9D0142001F0A4FBF7
:1012A0000224204670BD0000000C014010B5064825
:1012B0004FF4005309B1002200E001221946FFF764
:1012C00034F9002010BD00000010014070B586B058
:1012D000002411480094019402940394816941F020
:1012E0001001816180690D4E00F010004FF400552F
:1012F0000490224629463046FFF717F90120009551
:10130000CDE901040220039069463046FFF718F842
:1013100006B0002070BD0000001002400010014027
:101320001CB503220021012001F028FD0B4C606058
:1013300010B10BA000F022FC114A0021114800F06E
:1013400051FD0649606108311820CDE900010023F4
:1013500080220DA10F4802F04DF81CBD00000020B6
:10136000B6FED6B5D0C5BAC5C1BFB4B4BDA8B3C961
:10137000B9A6A3A1A3A1A3A1A3A10D0A00000000E7
:10138000783E0008A117000853544152545F54415D
:10139000534B00005117000870B586B000241C485C
:1013A0000094019402940394816941F010018161D9
:1013B000816901F010010491816941F0200181618E
:1013C000816901F020010491816941F0040181618A
:1013D000816901F004010491816941F00801816192
:1013E00080690C4E00F008004FF440750490002214
:1013F00029463046FFF799F811200095CDE9010400
:101400000220039069463046FEF79AFF06B070BD91
:1014100000100240000C01400C4810B50A49016060
:101420004FF416514160002181600C22C160C0E977
:1014300004128161C161FFF72FFE002803D0BDE8CF
:101440001040FEF70BBF10BD00380140A400002083
:10145000FEE7FEE770B500240021204600F0DDF82D
:101460000025002000F063F96D1CEDB2802DF8D34B
:10147000641CE4B2082CEFD370BD000010B5064C1C
:10148000012211022046FFF750F820460122BDE854
:1014900010405102FFF749B8000C01402DE9F04718
:1014A000144E002407464FF080084FF40079B5151C
:1014B00028FA04F23A4049463046FFF736F801224E
:1014C00029463046FFF731F8002229463046FFF71B
:1014D0002CF8641CE4B2082CEAD3012229463046D9
:1014E000FFF723F829463046BDE8F0470022FFF712
:1014F0001CB80000000C014070B501220B4D5402D5
:1015000021462846FFF711F80122160231462846E7
:10151000FFF70BF8002221462846FFF706F8314670
:101520002846BDE870400022FEF7FFBF000C0140D6
:1015300070B50A4D4FF40074002221462846FEF78C
:10154000F4FF012211022846FEF7EFFF214628464C
:10155000BDE870400122FEF7E8BF0000000C01402A
:1015600010B500204FF47A720021491C9142FCD33F
:10157000401C9042F8D3FFF781FFAE2000F0C6F880
:10158000D52000F0C3F8802000F0C0F8A82000F0BB
:10159000BDF83F2000F0BAF8D32000F0B7F80020E3
:1015A00000F0B4F8402000F0B1F8A12000F0AEF84F
:1015B000C82000F0ABF8DA2000F0A8F8122000F004
:1015C000A5F8812000F0A2F8CF2000F09FF8D920E4
:1015D00000F09CF8F12000F099F8DB2000F096F87C
:1015E000302000F093F8A42000F090F8A62000F03E
:1015F0008DF88D2000F08AF8142000F087F8AF20D5
:1016000000F084F8BDE81040FFF724BF0246012037
:1016100000E05043491EFCD2704710B50C4640F024
:10162000B00000F073F8102040EA141000F06EF8DB
:1016300004F00F00BDE8104000F068B82DE9F0415B
:101640000746CE004000083E801E15464FF0FF388A
:10165000F1B2C0B2FFF7E1FF1148002400EB05151D
:101660002819A0F5805090F8000E00F060F8641C76
:10167000E4B2082CF4D308EB4700F1B2C0B2FFF794
:10168000CCFF00242819A0F5805090F8080E00F037
:101690004EF8641CE4B2082CF4D3BDE8F0810000DD
:1016A000883800082DE9F04700241D461646884674
:1016B00081460A2713E0291B0A20491EFFF7A6FFCF
:1016C000B6FBF0F0B0FBF7F107FB110208EB0400EA
:1016D000C1B248463032FFF7B1FF641CE4B2AC42FD
:1016E000E9D3BDE8F0872DE9F04115460E460746DF
:1016F000002406E03019C1B23846FFF79FFF641C92
:10170000E4B22A5D002AF5D1BDE8F08110B50446A7
:10171000FFF7F2FE7820FFF7C1FE0020FFF7BEFEC4
:101720002046FFF7BBFEBDE81040FFF701BF10B534
:101730000446FFF7E1FE7820FFF7B0FE4020FFF7F8
:10174000ADFE2046FFF7AAFEBDE81040FFF7F0BE51
:101750001CB50C481824CDE90040002380220AA1C2
:101760000B4801F047FE07480023001DCDE900406B
:10177000462208A1094801F03DFEBDE81C400020BA
:1017800001F058B90C0000205461736B3100000067
:10179000E12600085461736B320000004D270008F9
:1017A000FFF758FE012100240EA20846FFF79BFF19
:1017B0000F4D4FF47A7600BF01F042F8641C2146C9
:1017C0000CA000F0DBF901F05BF82A680323501C41
:1017D000286001210220FFF765FF304601F004F97F
:1017E000EAE7000068656C6C6F20776F726C6400CC
:1017F00000000020537461727444656661756C74F6
:10180000D4CBD0D0B4CECAFD3A2564A3A1A3A1A362
:10181000A1210D0A0000000010B5502080F31188AE
:10182000BFF34F8FBFF36F8F01F050FE18B1044923
:101830004FF080500860002080F3118810BD000038
:1018400004ED00E030B58FB028216846FEF7D1FCEA
:1018500014210AA8FEF7CDFC01210804CDE90010EF
:101860000024029402250491CDE907504FF4E010C2
:1018700009906846FFF72AF808B172B6FEE70F2014
:10188000CDE90A054FF48060CDE90C4002210AA899
:101890000E94FEF71FFF002801D072B6FEE70FB0CE
:1018A00030BD70470148FFF7FEB90000EC00002092
:1018B000F0B50268164B174C174D4FF08047984211
:1018C00005D0B84203D0A04201D0A84203D122F0F3
:1018D00070064A683243984205D0B84203D0A0420D
:1018E00001D0A84203D122F44074CA6822434C6953
:1018F00022F08002224302608A68C2620A68826221
:10190000984201D10969016301214161F0BD0000E4
:10191000002C0140000400400008004010B5406A5F
:101920000021C185C184FFF77FFA10BD01680C3129
:1019300051E8002F22F4907241E80023002BF5D1EA
:101940000168143151E8002F22F0010241E8002320
:10195000002BF5D1016B012909D101680C3151E847
:10196000002F22F0100241E80023002BF5D12021A6
:1019700080F8421000210163704708B590F84210CA
:10198000222901D0022008BD82684FF480539A4278
:1019900001D1016921B1816A9A421BD04AB10AE0A2
:1019A0000268816A5268C2F308020A80816A891C4F
:1019B00008E0026972B10268526802F07F020A70A0
:1019C000816A491C8162C18D491E0904090CC185C7
:1019D00003D01BE002685268F1E70168CA6822F090
:1019E0002002CA600168CA6822F48072CA60016875
:1019F0004A6922F001024A61202180F84210002148
:101A00004163026B012A03D0FFF7B8FB002008BD39
:101A1000016301680C3151E8002F22F0100241E807
:101A20000023002BF5D101680A68D20602D50A68A6
:101A300049680091818DFFF7F6F9E7E770B5044634
:101A400000680169E26821F4405111430161216994
:101A5000A0680843616908432168CA6841F20C63C1
:101A60009A430243CA6020684169A26921F4407127
:101A7000114341611E492068884202D1FEF7F0FE01
:101A800001E0FEF7DDFE00EBC00101EB0012606833
:101A900064218000B2FBF0F3B3FBF1F36FF01806A2
:101AA0007343B2FBF0F5B2FBF0F605EB830532238E
:101AB00003EB0515B5FBF1F5B6FBF1F605F0F00506
:101AC00005EB0615B2FBF0F6B2FBF0F0B0FBF1F05F
:101AD0006FF01802504306EB800003EB0010B0FBE0
:101AE000F1F0216800F00F002844886070BD00000C
:101AF000003801402DE9F041984617460E4604464D
:101B0000069D27E0681C25D02DB1FEF713FDA0EB44
:101B10000800A8421ED920680C3050E8001F21F4AC
:101B2000D07140E80012002AF5D12068143050E846
:101B3000001F21F0010140E80012002AF5D1202009
:101B400084F8410084F84200002084F8400003201B
:101B5000BDE8F0812068006836EA000004D000206B
:101B6000B842CFD00020F3E70120F9E70148FFF7A2
:101B70005DB90000A4000020FEE700000FB4054B93
:101B800010B503A9044A029800F028F810BC5DF8CB
:101B900014FB0000311D0008A00000200907090EF9
:101BA000002804DB00F1E02080F80014704700F00A
:101BB0000F0000F1E02080F8141D704702E008C813
:101BC000121F08C1002AFAD170477047002001E0B7
:101BD00001C1121F002AFBD1704700002DE9FF4F01
:101BE00089B09B460446002506E025280BD05A46BE
:101BF0000B999047641C6D1C20780028F5D10DB01E
:101C00002846BDE8F08F0027B8460122474900E08A
:101C1000074314F8013F203B02FA03F00842F7D1D2
:101C200020782E2819D114F8010F47F004072A282C
:101C30000ED06FF02F022078A0F1300109290CD8C6
:101C400008EB880102EB410100EB0108641CF2E79C
:101C50000A98641C50F8048B0A9020780028CED093
:101C6000642808D0692806D075281ED05A460B99DA
:101C700090476D1C58E00A994FF00A0901C90A9172
:101C8000002802DA40422D2102E0390504D52B213B
:101C90008DF82010012103E0F90704D02021F7E797
:101CA0008A4608AE0DE00021FAE70A994FF00A09CA
:101CB00001C90A91F7E74946FEF7A6FA303106F85E
:101CC000011D0028F7D1ADEB060000F120097807CF
:101CD00001D44FF00108C84502DDA8EB090000E07F
:101CE00000208046002706E008A85A46C05D0B99F0
:101CF00090476D1C7F1C5745F6DB04E030205A46A8
:101D00000B9990476D1CB8F10001A8F10108F5DCB2
:101D100005E016F8010B5A460B9990476D1CB9F176
:101D20000001A9F10109F4DC641C65E70928010040
:101D300013B54FF6FF73012269460248FFF71FFAF9
:101D400000981CBDA4000020FEF702FCFFF77AFDFE
:101D5000FFF722FBFFF760FBFFF702FC00F006F83D
:101D6000FFF7DEFA00F01EF8FEE70000EFF3058053
:101D700058B9EFF3108040B909490868022801D02A
:101D800030B109E0EFF3118030B16FF0050070471A
:101D900001200860002070474FF0FF3070470000BE
:101DA0007800002010B5EFF3058060B9EFF31080E4
:101DB00048B90B490868022802D0012806D00BE078
:101DC000EFF3118040B16FF0050010BD02200860F4
:101DD00000F002FF002010BD4FF0FF3010BD0000EA
:101DE00078000020F0B585B04FEA01034FF0000401
:101DF000EFF305810394A1BBEFF3108189BB214967
:101E00000968022902D1EFF3118151BB48B3802642
:101E100018218DF8104004AD42B3176807B13D4654
:101E200097691FB139467F1E382F02D21779FF07F5
:101E300002D0002005B0F0BD576907B1BE08D2F846
:101E400008C0BCF1000F0DD0D4685C2C18D3126907
:101E50003AB137B18DE806103246294601F0F7FA5B
:101E600003900DE0D7685FB912694AB903AACDE9BA
:101E70000012B2B2294601F0BDFA012800D0039445
:101E80000398D7E7780000202DE9F041134C0F4666
:101E9000054666692068001D00F076FC681C07D1C5
:101EA00037B12168BDE8F0410D48091D00F0BCBC08
:101EB00020683544B5424560216805D2A068BDE878
:101EC000F041091D00F098BC6068091D00F094FC09
:101ED000206B854200D22563BDE8F08128000020F8
:101EE000240600202DE9F041054600F0A9FC2D4C08
:101EF0002069401C206120682B4F10B1E06930B38D
:101F00002BE025602069012827D1002606EB8600FA
:101F100007EB800000F062FC761C382EF6D32348D5
:101F200000F05CFC2148143000F058FC1F482830B9
:101F300000F054FC1D483C3000F050FC1B48503071
:101F400000F04CFC194860601430A06005E0206887
:101F5000E96AC06A884200D82560E06A401CE062F5
:101F60006864E86AA169884200D9A06100EB80003A
:101F700007EB8000291D00F057FC00F081FCE069B0
:101F800000280CD02068E96AC06A884207D2084954
:101F90004FF080500860BFF34F8FBFF36F8FBDE8E5
:101FA000F08100002800002074010020D4050020EA
:101FB00004ED00E038B500F043FC104CA068C8B94F
:101FC0000F4800F00BFC0E48143000F007FC0C48E2
:101FD0002060143060600A4B00202833009003F129
:101FE000500210210A2000F0EDFEA06010B105A102
:101FF00000F0C4FCBDE8384000F042BC64000020A2
:1020000038060020546D72510000000030B4026C9C
:102010000B46002A0BD0C1681144C1604468A1423C
:1020200001D30168C16030BC1846FEF7C9B830BCA6
:1020300070472DE9F041856B174604460026026C77
:1020400082B1C7B1E068FEF7BBF8E168206C091AFD
:10205000E1602268914202D26168081AE060022FB2
:1020600016D017E02068A8B9606801F093FA064618
:10207000002060600EE0A068FEF7A2F8216CA06866
:102080000844A0606168884204D32068A06001E031
:1020900005B16D1E6D1CA5633046BDE8F08110B51D
:1020A000044690F8590058B101280CD002280FD0EE
:1020B000502080F31188BFF34F8FBFF36F8FFEE77F
:1020C000206B00F0F1FB2046BDE8104000F0ECBBB7
:1020D00010BD000010484FF44061420706D0C01DFB
:1020E0000D4920F00700411AC1F540610B4A002359
:1020F0000144C2E900030839103A21F007011160D8
:102100004B600B600B1AC0E9001393604FF0004066
:102110005360D06070470000080E00208C00002043
:10212000144E154CA6F29C474FF08058DFF84C90A7
:1021300012E000BF00F084FBF068C568281D00F0C5
:1021400023FB2069401E2061E068401EE06000F033
:1021500097FB2846FFF7A3FFE0680028EAD138681C
:102160000128F9D9C9F80080BFF34F8FBFF36F8FF3
:10217000F2E70000100600202800002004ED00E037
:1021800070B51D46049C51B1C4F80020C4E90F018C
:102190000121204600F04AFE84F84C5070BD2460B6
:1021A000F4E72DE9F0470E46DDE90984174682463B
:1021B00091009946089DA522206BFEF713F86FF059
:1021C0000301206B01EB8701084420F00707780723
:1021D00007D0502080F31188BFF34F8FBFF36F8F6C
:1021E000FEE72218315C82F83410315C11B1401CDA
:1021F0001028F6D3002684F84360382D00D3372505
:10220000E562C4E91356201D00F0F3FA04F118004A
:1022100000F0EFFA2461C5F138006462A0616665E0
:1022200084F858604A465146384600F047FA206024
:10223000B8F1000F01D0C8F80040BDE8F0870000F9
:1022400030B5114900E011460A688242FBD34B6861
:102250005C18844203D140681844486008464368CB
:102260001C18944209D1084C103C2468A24209D0A1
:1022700052681A4442600A6812680260814200D0C3
:10228000086030BD0460F9E78C00002070B50024C0
:1022900041600B4D0061914206D8D11A826991428A
:1022A00006D2011D686807E09A4203D2994201D321
:1022B000012403E0011D286800F09EFA204670BD4D
:1022C0006400002010B5044600F0BAFAA06B28B1F3
:1022D0005FF0000400F0D4FA204610BD0124F9E7B5
:1022E00030B589B0304D55E00498002806DADDE9B4
:1022F0000601059A9047049800284BDB069C60690C
:1023000010B1201D00F040FA02A800F0B9F8024612
:1023100004980A283ED2DFE800F00505053D26377F
:1023200005053D260598A169034601442046FFF7AF
:10233000ADFF00B3616A20468847E069012829D1D2
:10234000002000900598A1690023421819462046F4
:1023500001F066FA78B9502080F31188BFF34F8FEF
:10236000BFF36F8FFEE70598A06128B1811813466F
:102370002046FFF78BFF0DE0502080F31188BFF35C
:102380004F8FBFF36F8FFEE794F82C0010B92046F3
:1023900000F08AFA002204A9A86800F099FE00283B
:1023A000A2D109B030BD0000640000202DE9FC413D
:1023B0000F46054600F054FC01A800F061F8044601
:1023C000019818B101F09AF9BDE8FC81224EAFB135
:1023D00070680068A8B30027291B3A46B06800F06F
:1023E000E1FA01F08BF90028EED11C494FF0805042
:1023F0000860BFF34F8FBFF36F8FE5E7A542EBD8BF
:1024000001F07CF930682746C068C468201D00F0E0
:10241000BBF9E069012810D1A0692B4641193A4661
:102420002046FFF733FF40B10020034601460090ED
:102430002A46204601F0F4F920B1616A2046884717
:10244000C2E707E0502080F31188BFF34F8FBFF33E
:102450006F8FFEE70127BFE76400002004ED00E076
:1024600006484168096829B14168C968C96849686E
:10247000016370474FF0FF31FAE7000028000020A9
:1024800070B5054601F01CF8064E044630698442DA
:1024900003D200F009F8012000E000202860204667
:1024A000346170BD64000020F8B5194D1FE0C068AC
:1024B000C4680668201D00F067F9616A20468847F5
:1024C000E069012813D1A0693044B04206D92461E3
:1024D0006060211D286800F08FF908E000200346A5
:1024E000014600903246204601F09AF938B128683A
:1024F00001680029DBD16968C5E90010F8BD5020EA
:1025000080F31188BFF34F8FBFF36F8FFEE700009A
:102510006400002008484068401C4FF0500080F3E1
:10252000118804D0BFF34F8FBFF36F8FFEE7BFF367
:102530004F8FBFF36F8FFEE794000020074C206899
:10254000016841B1C0680021D0F80000FFF72EFFFC
:10255000FFF7C6FEF3E701210020F7E76400002043
:102560002DE9F041044600F06BF994F9455004F16F
:10257000240609E0606A48B1304601F087F808B1E6
:1025800000F0A8FA6D1E6DB2002DF3DC4FF0FF369F
:1025900084F8456000F074F900F052F994F9445061
:1025A00004F1100709E0206948B1384601F06EF8DF
:1025B00008B100F08FFA6D1E6DB2002DF3DC84F8C7
:1025C0004460BDE8F04100F05BB900002DE9F04146
:1025D0000546002700F044FB314E306808B9FFF78C
:1025E00079FDF06805424BD1C5B3083568070ED0B8
:1025F00005F00700C0F108000544680707D0502027
:1026000080F31188BFF34F8FBFF36F8FFEE72DB3B9
:102610007068854234D82248103001460C6801E0C9
:1026200020460C466168A94202D221680029F7D1F0
:1026300031688C4224D007682168016060680837DF
:10264000411B10290FD96019420708D0502080F390
:102650001188BFF34F8FBFF36F8FFEE710E041602B
:102660006560FFF7EDFD61687068401A7060B268E0
:10267000904200D2B060F06801430020C4E900013C
:1026800001F03CF8780707D0502080F31188BFF3A1
:102690004F8FBFF36F8FFEE73846BDE8F081000033
:1026A0007C0000200449086818B10868026D521CBB
:1026B00002650868704700002800002010B5031F5D
:1026C0004FF080741C601B1F21F001011960191F5D
:1026D000024B0B60143940380A6010BD1525000804
:1026E000FEF79CFD0C4C00BFFEF7B0FDC0B2012808
:1026F0000CD1606850B100231A46194600F0DAFB8D
:10270000012807D005A000BFFFF738FA0A2000F023
:102710006BF9E9E707A0F7E700000020D0C5BAC5CC
:10272000C1BFCACDB7C5CAA7B0DCA3A1A3A1A3A14D
:102730000D0A0000D0C5BAC5C1BFCACDB7C5B3C95F
:10274000B9A6A3A1A3A1A3A10D0A0000FEF7BEFD97
:102750000C4D4FF0FF364FF4FA743146686800F0C4
:1027600053FD0128F9D101210846FEF79FFD2046BF
:1027700000F03AF900210120FEF798FD204600F014
:1027800033F9EAE700000020D0E9013201699A60DC
:10279000D0E901235A604A68824201D182684A60C6
:1027A000002202610868401E086008687047000047
:1027B000034B036003F15C000860802010607047E9
:1027C00050070020044B036003F15C0008604FF4E5
:1027D0008070106070470000AC09002000F1080113
:1027E0004FF0FF32C0E90112C160016100210160B8
:1027F000704700210161704730B50B685A1C02D048
:1028000000F1080202E0026904E0224654682568EB
:102810009D42FAD953684B6099608A6051600861A3
:102820000168491C016030BD42684A6093688B6052
:1028300093685960916008610168491C01607047A4
:10284000502080F31188BFF34F8FBFF36F8F0A4979
:102850004868401C486001280CD10848006810F006
:10286000FF0F07D0502080F31188BFF34F8FBFF3C5
:102870006F8FFEE7704700009400002004ED00E039
:102880000849486828B1401E486001D180F311888A
:102890007047502080F31188BFF34F8FBFF36F8FC5
:1028A000FEE700009400002070B5002827D0144DEA
:1028B000A0F108046168E868014207D1502080F364
:1028C0001188BFF34F8FBFF36F8FFEE722683AB1D5
:1028D000502080F31188BFF34F8FBFF36F8FFEE757
:1028E0008143616000F0BCF9606869680844686011
:1028F0002046FFF7A5FCBDE8704000F0FFBE70BDAC
:102900007C0000204FF0E020002101618161054939
:102910004FF47A720968B1FBF2F1491E4161072157
:10292000016170472400002010B5FDF733FC114908
:1029300010280ED300F1E02090F8F0030A789042BE
:1029400007D2502080F31188BFF34F8FBFF36F8FF2
:10295000FEE709480068896800F4E060884207D90A
:10296000502080F31188BFF34F8FBFF36F8FFEE7C6
:1029700010BD0000940000200CED00E010B5084BE5
:10298000002200BF53F832401CB1521C082AF9D370
:1029900010BD43F8321003EBC201486010BD0000C7
:1029A0003401002070B515460E460446FFF748FF77
:1029B00094F944100020491C01D184F8440094F992
:1029C0004510491C01D184F84500FFF759FFA06B61
:1029D00028B92A46314604F1240000F099F820462F
:1029E000BDE87040FFF7BCBD10B5020014D00F4821
:1029F000806B38B1502080F31188BFF34F8FBFF345
:102A00006F8FFEE700F02CF900211046FFF73CFA2B
:102A100000F074FE002807D105494FF0805008608F
:102A2000BFF34F8FBFF36F8F10BD00002800002051
:102A300004ED00E070B50546FFF702FF1E4C05B936
:102A40002568281DFFF7A0FEA86A18B105F1180037
:102A5000FFF79AFEE06A401CE0622068854207D1D9
:102A6000291D1648FFF7E0FEE068401CE06007E023
:102A70002069401E20612846FFF711FBFFF7F0FC9C
:102A8000FFF7FEFEE069002814D02068854211D1CE
:102A9000A06B38B1502080F31188BFF34F8FBFF384
:102AA0006F8FFEE706494FF080500860BFF34F8FED
:102AB000BFF36F8F70BD00002800002010060020BB
:102AC00004ED00E002498A6A02604969416070478A
:102AD000280000200149012048627047280000209A
:102AE00010B50C4650B1094909681831FFF784FE4A
:102AF0002046BDE810400121FFF7C6B9502080F301
:102B00001188BFF34F8FBFF36F8FFEE728000020BF
:102B100070B514460D4668B10A4909681831FFF7C7
:102B200083FE0CB14FF0FF3521462846BDE87040CA
:102B3000FFF7AAB9502080F31188BFF34F8FBFF37E
:102B40006F8FFEE72800002070B504003ED0226D94
:102B5000A2B1E06C884200D30146E06A884235D0D9
:102B6000012A33D11A4D2A6894420FD1502080F3A4
:102B70001188BFF34F8FBFF36F8FFEE7502080F3B4
:102B80001188BFF34F8FBFF36F8FFEE7E162A26939
:102B9000002A02DBC1F13801A1610E4E00EB80007A
:102BA000616906EB8000814210D1201DFFF7ECFD2A
:102BB000E06AA969884200D9A86100EB800006EBB1
:102BC0008000211DBDE87040FFF72EBE70BD0000E3
:102BD000280000207401002030B587B00024039441
:102BE00005AA04A903A80494FFF7E2FDDDE90301A7
:102BF0000094CDE90110002315A11748059A00F0B3
:102C000026FC164D002868631FD000F0D9FD01286E
:102C100009D0401C19D1502080F31188BFF34F8F89
:102C2000BFF36F8FFEE7502080F31188BFF34F8F03
:102C3000BFF36F8F4FF0FF3028630120E8616C61B4
:102C400007B0BDE8304000F045B807B030BD000027
:102C500049444C45000000002121000828000020C4
:102C60000248816B491C81637047000028000020E6
:102C7000164810B5816B11B10121416210BD0021D0
:102C800041628169124A01E0B9B1491E01EB810339
:102C900052F82330002BF7D001EB810302EB8302C3
:102CA00002F1080453685B685360A34201D15B687A
:102CB0005360DA680260816110BD502080F3118892
:102CC000BFF34F8FBFF36F8FFEE700002800002097
:102CD000740100201CB5264908780190FF20087077
:102CE00008788DF800009DF800009DF8002000F0A5
:102CF000F000904207D0502080F31188BFF34F8F2F
:102D0000BFF36F8FFEE79DF800001A4B00F05000F4
:102D100018700720986005E09DF8002052008DF89B
:102D20000020401E9DF800201206F5D4986003286C
:102D300007D0502080F31188BFF34F8FBFF36F8F00
:102D4000FEE74FF440709860019808700A480168E7
:102D500041F470010160016841F070410160FFF7CA
:102D6000D1FD00205860FDF7DFF900201CBD0000F8
:102D700000E400E09400002020ED00E0F8B51746E4
:102D80000E46050014D0DEB105FB06F05030FFF70B
:102D90001DFC04000AD0002084F8460004F1500213
:102DA0003B46314628460094FFF7EAF92046F8BD35
:102DB000502080F31188BFF34F8FBFF36F8FFEE772
:102DC0000020E3E738B5049D18B153B1CAB181B111
:102DD00020E0502080F31188BFF34F8FBFF36F8F37
:102DE000FEE7502080F31188BFF34F8FBFF36F8F42
:102DF000FEE7502080F31188BFF34F8FBFF36F8F32
:102E0000FEE739B1502080F31188BFF34F8FBFF335
:102E10006F8FFEE750241C46012384F846302B4672
:102E20000094FFF7ADF9204638BD000070B50D469F
:102E3000040025D0FFF704FDD4E90F20216802FB30
:102E4000001161600021A1632168A1600A46D4E9F4
:102E50000F01401E00FB0121E16021464FF0FF30D1
:102E600001F8440F487004F110008DB1FFF7B6FC73
:102E700004F12400FFF7B2FCFFF702FD012070BD52
:102E8000502080F31188BFF34F8FBFF36F8FFEE7A1
:102E900021690029F0D000F0F9FB0028ECD00449AA
:102EA0004FF080500860BFF34F8FBFF36F8FE3E7A1
:102EB00004ED00E02DE9FF4782B01D468A464FF041
:102EC0000008040003D0BAF1000F08D011E0502030
:102ED00080F31188BFF34F8FBFF36F8FFEE7206C35
:102EE00038B1502080F31188BFF34F8FBFF36F8F3D
:102EF000FEE7022D0AD1E06B012807D0502080F3B5
:102F00001188BFF34F8FBFF36F8FFEE700F0CAFA4F
:102F10003F4F4FF000094FF0805648B9049838B140
:102F2000502080F31188BFF34F8FBFF36F8FFEE700
:102F3000FFF786FCA06BE16B884207D3022D05D01A
:102F40000498D0B1B8F1000F1AD01EE02A465146BD
:102F50002046FFF76EF8616A19B104F1240000F011
:102F600095FB20B13E60BFF34F8FBFF36F8FFFF72C
:102F700087FC012006B0BDE8F087FFF781FC22E066
:102F80006846FFF79FFD4FF00108FFF779FCFFF758
:102F900067FEFFF755FC94F94400401C01D184F80A
:102FA000449094F94500401C01D184F84590FFF706
:102FB00067FC04A9684600F0E3F930B12046FFF74A
:102FC000CFFA00F09BFB0020D4E7FFF739FCA06BA1
:102FD000E16B884213D1FFF753FC04F11000049910
:102FE000FFF77EFD2046FFF7BBFA00F087FB0028C5
:102FF0009ED13E60BFF34F8FBFF36F8F98E7FFF70F
:103000003FFC2046FFF7ACFA00F078FB90E70000A9
:1030100004ED00E02DE9F0471F4690468946040084
:1030200003D0B9F1000F08D011E0502080F31188CF
:10303000BFF34F8FBFF36F8FFEE7206C38B1502086
:1030400080F31188BFF34F8FBFF36F8FFEE7022F1E
:103050000AD1E06B012807D0502080F31188BFF31C
:103060004F8FBFF36F8FFEE7FFF75EFC5020EFF34B
:10307000118680F31188BFF34F8FBFF36F8FA06B62
:10308000E16B884206D3022F04D0002086F311881A
:10309000BDE8F08794F945503A4649462046FEF788
:1030A000C8FF681C04D06D1C84F845500120EDE772
:1030B000606A0028FAD004F1240000F0E7FA002842
:1030C000F4D0B8F1000FF1D00121C8F80010EDE7FD
:1030D0002DE9F747002683B08A46040003D0BAF1F1
:1030E000000F08D011E0502080F31188BFF34F8FFC
:1030F000BFF36F8FFEE7206C38B1502080F311884A
:10310000BFF34F8FBFF36F8FFEE700F0CBF9DFF80F
:10311000F4804FF000094FF0805748B9059838B156
:10312000502080F31188BFF34F8FBFF36F8FFEE7FE
:10313000FFF786FBA56BC5B151462046FEF766FF3B
:103140006D1EA563206950B104F1100000F09EFAD5
:1031500028B1C8F80070BFF34F8FBFF36F8FFFF730
:103160008FFB012006B0BDE8F087059808B11EB1BD
:1031700006E0FFF785FB27E06846FFF7A3FC012682
:10318000FFF77EFBFFF76CFDFFF75AFB94F9440055
:10319000401C01D184F8449094F94500401C01D1B1
:1031A00084F84590FFF76CFB05A9684600F0E8F845
:1031B000002820460AD0FFF7D3F900F09FFA2046F6
:1031C000FFF780F80028B3D00020CBE7FFF77AF8AC
:1031D00090B104F124000599FFF782FC2046FFF727
:1031E000BFF900F08BFA0028A2D1C8F80070BFF335
:1031F0004F8FBFF36F8F9BE72046FFF7B1F900F0C9
:103200007DFA95E704ED00E02DE9F343002683B055
:103210000400354609D0206C78B1502080F3118825
:10322000BFF34F8FBFF36F8FFEE7502080F31188FD
:10323000BFF34F8FBFF36F8FFEE700F033F9DFF876
:103240003C814FF000094FF0805748B9049838B1DD
:10325000502080F31188BFF34F8FBFF36F8FFEE7CD
:10326000FFF7EEFAA06BC8B1401EA063206810B94A
:10327000FFF718FA6060206950B104F1100000F007
:1032800005FA28B1C8F80070BFF34F8FBFF36F8FF6
:10329000FFF7F6FA012005B0BDE8F083049808B105
:1032A00066B10FE03DB1502080F31188BFF34F8F1E
:1032B000BFF36F8FFEE7FFF7E3FA5DE06846FFF7C5
:1032C00001FC0126FFF7DCFAFFF7CAFCFFF7B8FAAA
:1032D00094F94400401C01D184F8449094F94500CD
:1032E000401C01D184F84590FFF7CAFA04A968464A
:1032F00000F046F80028204612D0FFF731F900F020
:10330000FDF92046FEF7DEFF0028A9D09DB3FFF7A8
:1033100097FA606A50B3206B0068C0F1380126E06C
:10332000FEF7D0FFE0B1206838B9FFF789FA60688E
:1033300000F070F90546FFF7A3FA04F124000499A0
:10334000FFF7CEFB2046FFF70BF900F0D7F9002876
:1033500086D1C8F80070BFF34F8FBFF36F8F7FE740
:103360002046FFF7FDF800F0C9F979E70021606811
:10337000FFF7EAFB9FE7FFE700208CE704ED00E0A2
:103380002DE9F0410C46050011D0C4B1FFF758FA01
:10339000174B5A696E682068911B471C17D02F681D
:1033A0009B6A9F4219D0964217D8012410E0502002
:1033B00080F31188BFF34F8FBFF36F8FFEE750206C
:1033C00080F31188BFF34F8FBFF36F8FFEE70024A8
:1033D000FFF756FA2046BDE8F081884205D9401A29
:1033E00020602846FFF76EFBF1E700202060DCE755
:1033F000280000202DE9FF5F8346DDE90E8799460E
:1034000016468A469000FFF7E1F805001CD05C20C4
:10341000FFF7DCF8040014D00020256384F859007D
:10342000CDE90240CDE900874B4632465146584629
:10343000FEF7B7FE2046FEF755FD012004B0BDE8BB
:10344000F09F2846FFF730FA4FF0FF30F6E7F0B56F
:1034500085B0DDE90B640A9DA6B1DCB15C2700975D
:103460002663022684F85960002604AFCDE902469F
:10347000CDE90057FEF795FE2046FEF733FD049890
:1034800005B0F0BD502080F31188BFF34F8FBFF31C
:103490006F8FFEE7502080F31188BFF34F8FBFF38B
:1034A0006F8FFEE70548C16919B1806B18B1002024
:1034B000704701207047022070470000280000205C
:1034C0000148406970470000280000202DE9F041C4
:1034D0002E4C0027A06B40B1206A401C2062606A1D
:1034E00000B101273846BDE8F0816669761C666147
:1034F00013D16068006838B1502080F31188BFF3A1
:103500004F8FBFF36F8FFEE76068A1686160A060B6
:10351000A06A401CA062FEF7A3FF206BDFF870805A
:10352000864209D36068006880B16068C068C56879
:10353000686886420DD220632068C06A00EB800173
:1035400058F821000128CAD90127C8E74FF0FF30F9
:10355000F1E7281DFFF718F9A86A18B105F118005E
:10356000FFF712F9E86AA169884200D9A06100EB6F
:10357000800108EB8100291DFFF756F9E86A2168F0
:10358000C96A8842CED30127CCE70000280000207A
:103590007401002070B504004FF0000133D01B4DC2
:1035A0002868844207D0502080F31188BFF34F8FE2
:1035B000BFF36F8FFEE7206D38B1401E2065E36CCE
:1035C000E26A9A421FD040B11DE0502080F311887A
:1035D000BFF34F8FBFF36F8FFEE7201DFFF7D4F8C7
:1035E000E06CE062C0F13800A061E06AA96988423D
:1035F00000D9A861064900EB800001EB8000211D85
:10360000FFF712F90121084670BD000028000020D4
:103610007401002070B504004FF000002BD0194D4C
:10362000E16A2A68D26A914226D2A069002804DBA6
:103630002868C06AC0F13800A061134E01EB810117
:10364000606906EB8101884211D1201DFFF79CF8CB
:103650002868C06AE062A969884200D9A86100EBC5
:10366000800006EB8000211DFFF7DEF802E02868ED
:10367000C06AE062012070BDE16C2A68D26A9142A2
:10368000F8D370BD280000207401002070B5C06818
:10369000C46854B104F118000646FFF775F8144DDC
:1036A000A86B50B13146134815E0502080F31188C3
:1036B000BFF34F8FBFF36F8FFEE7201DFFF764F856
:1036C000E06AA969884200D9A8610B4900EB800033
:1036D00001EB8000211DFFF7A7F8E06A2968C96A9D
:1036E000884202D90120686270BD002070BD0000D0
:1036F00028000020FC050020740100202DE9F0477F
:103700002C4D00242746A86B38B1FFF799F8A86B19
:10371000401EA863A86B40B146E0502080F311889A
:10372000BFF34F8FBFF36F8FFEE72969224E012051
:10373000D1B3A6F5916980463068E0B1F068C468FD
:1037400004F11800FFF720F8201DFFF71DF8E06ACC
:10375000A969884200D9A86100EB800109EB8100CA
:10376000211DFFF761F8E06A2968C96A8842E3D33E
:10377000C5F82480E0E70CB1FEF772FE2C6A4CB16C
:103780004FEA0806FFF7A2FE00B16E62641EF9D18F
:1037900000202862686A38B10849012738070860A4
:1037A000BFF34F8FBFF36F8FFFF76AF83846BDE85E
:1037B000F087000028000020FC05002004ED00E058
:1037C00010B586B0FEF7F6FB114CA068B8B100202A
:1037D0000390049005AA04A903A8FEF7F3FFDDE90E
:1037E000032102208DE8070000230AA10B48059A57
:1037F000FFF72DFEE06010B106B0012010BD502093
:1038000080F31188BFF34F8FBFF36F8FFEE7000087
:1038100064000020546D7220537663003D2500083B
:103820002DE9FF411E46134602000A9D4FF000009D
:1038300016D0144CA768002F0FD0CDE900130292C8
:10384000062917DAFFF72EFE02284FF000030FD0EB
:1038500000226946A068FFF72DFB04B0BDE8F081A7
:10386000502080F31188BFF34F8FBFF36F8FFEE7B7
:103870002A46EEE70023324669463846FFF7CAFB80
:10388000EBE70000640000200000000000000000E2
:103890000000000000000000000000F80000000030
:1038A000000000333000000000100C06100C060071
:1038B000000000000000000040C07840C0784000D8
:1038C000043F04043F040400007088FC083000003A
:1038D000001820FF211E0000F008F000E018000092
:1038E00000211C031E211E0000F00888700000004B
:1038F0001E2123241927211010160E00000000009D
:103900000000000000000000000000E018040200B9
:10391000000000071820400000020418E00000002A
:103920000040201807000000404080F08040400028
:103930000202010F01020200000000F0000000007E
:103940000101011F01010100000000000000000052
:1039500080B07000000000000000000000000000C7
:103960000001010101010101000000000000000050
:1039700000303000000000000000000080601804EB
:10398000006018060100000000E010080810E000C8
:10399000000F102020100F00001010F80000000091
:1039A0000020203F202000000070080808887000D8
:1039B0000030282422213000003008888848300058
:1039C0000018202020110E000000C02010F8000078
:1039D00000070424243F240000F808888808080011
:1039E0000019212020110E0000E010888818000026
:1039F000000F112020110E0000380808C8380800F8
:103A00000000003F00000000007088080888700077
:103A1000001C222121221C0000E010080810E000F8
:103A20000000312222110F00000000C0C000000081
:103A300000000030300000000000008000000000A6
:103A4000000080600000000000008040201008009E
:103A50000001020408102000404040404040400067
:103A60000404040404040400000810204080000042
:103A70000020100804020100007048080808F00047
:103A80000000003036010000C030C828E810E00017
:103A90000718272423140B000000C038E0000000A2
:103AA000203C23020227382008F88888887000000C
:103AB000203F202020110E00C030080808083800E0
:103AC000071820202010080008F808080810E00057
:103AD000203F202020100F0008F88888E8081000F8
:103AE000203F20202320180008F88888E8081000CC
:103AF000203F200003000000C03008080838000004
:103B000007182020221E020008F808000008F80804
:103B1000203F210101213F20000808F8080800008B
:103B20000020203F2020000000000808F8080800BE
:103B3000C08080807F00000008F888C02818080036
:103B4000203F20012638200008F80800000000006F
:103B5000203F20202020300008F8F800F8F8080066
:103B6000203F003F003F200008F830C00008F80860
:103B7000203F200007183F00E01008080810E00070
:103B80000F10202020100F0008F808080808F00087
:103B9000203F210101010000E01008080810E000AA
:103BA0000F18242438504F0008F88888888870003F
:103BB000203F2000030C30200070880808083800DF
:103BC0000038202121221C00180808F808081800D5
:103BD0000000203F2000000008F808000008F80856
:103BE000001F202020201F000878880000C8380807
:103BF000000007380E010000F80800F80008F8007F
:103C0000033C0700073C0300081868808068180818
:103C100020302C03032C30200838C800C838080096
:103C20000000203F2000000010080808C8380800E5
:103C30002038262120201800000000FE0202020089
:103C40000000007F40404000000C30C00000000039
:103C5000000000010638C00000020202FE00000061
:103C6000004040407F000000000004020202040007
:103C70000000000000000000000000000000000044
:103C8000808080808080808000020204000000002C
:103C90000000000000000000000080808080000024
:103CA0000019242222223F2008F800808000000012
:103CB000003F112020110E000000008080800000D5
:103CC000000E112020201100000000808088F800E4
:103CD000000E112020103F20000080808080000016
:103CE000001F222222221300008080F0888888187A
:103CF0000020203F20200000000080808080800085
:103D0000006B94949493600008F800808080000019
:103D1000203F210000203F200080989800000000F4
:103D20000020203F20200000000000809898000024
:103D300000C08080807F000008F800008080800044
:103D4000203F24022D302000000808F80000000069
:103D50000020203F20200000808080808080800024
:103D6000203F20003F20003F8080008080800000B6
:103D7000203F210000203F20000080808080000044
:103D8000001F202020201F00808000808000000075
:103D900080FFA12020110E000000008080808000A4
:103DA000000E112020A0FF80808080008080800095
:103DB00020203F21200001000000808080808000C2
:103DC0000033242424241900008080E08080000037
:103DD0000000001F20200000808000000080800084
:103DE000001F202020103F208080800000808080E5
:103DF00000010E3008060100808000800080808075
:103E00000F300C030C300F00008080008080800099
:103E10000020312E0E3120008080800000808080C4
:103E200080818E7018060100008080808080800074
:103E30000021302C2221300000000000807C020292
:103E400000000000003F404000000000FF000000B4
:103E500000000000FF0000000002027C8000000063
:103E60000040403F0000000000060101020204047F
:103E70000000000000000000C83E00080000000034
:103E80000000000000000000000000000002000030
:103E90001800000000000000000000000102020302
:103EA0000405060708090A0B0C0D0E0F1010000080
:103EB00000000000000001020304060708090000DA
:103EC000000001020304000064656661756C7454AF
:103ED00061736B00F43E000800000020A4000000A5
:103EE000BC1B0008983F0008A4000020641D0000CF
:103EF000CC1B0008000000000000000000000000D3
:103F000000000000000000000000000001000000B0
:103F100010000000000000000024F4000000000079
:103F20000000000000000000000000000000000091
:103F30000000000000000000000000000000000081
:103F40000000000000000000000000000000000071
:103F50000000000000000000000000000000000061
:103F60000000000000000000000000000000000051
:103F70000000000000000000000000000000000041
:103F8000000000000000000000000000AAAAAAAA89
:083F9000000000000000000029
:04000005080000ED02
:00000001FF
